{
	"user_profile.sol": {
		"User_Profile": {
			"abi": [
				{
					"inputs": [
						{
							"internalType": "address",
							"name": "_address",
							"type": "address"
						}
					],
					"name": "get_user",
					"outputs": [
						{
							"internalType": "string",
							"name": "",
							"type": "string"
						},
						{
							"internalType": "uint256",
							"name": "",
							"type": "uint256"
						}
					],
					"stateMutability": "view",
					"type": "function"
				},
				{
					"inputs": [
						{
							"internalType": "string",
							"name": "_name",
							"type": "string"
						},
						{
							"internalType": "uint256",
							"name": "_age",
							"type": "uint256"
						}
					],
					"name": "register",
					"outputs": [],
					"stateMutability": "nonpayable",
					"type": "function"
				},
				{
					"inputs": [
						{
							"internalType": "uint256",
							"name": "",
							"type": "uint256"
						}
					],
					"name": "user_list",
					"outputs": [
						{
							"internalType": "address",
							"name": "",
							"type": "address"
						}
					],
					"stateMutability": "view",
					"type": "function"
				},
				{
					"inputs": [
						{
							"internalType": "address",
							"name": "",
							"type": "address"
						}
					],
					"name": "users",
					"outputs": [
						{
							"internalType": "string",
							"name": "name",
							"type": "string"
						},
						{
							"internalType": "uint256",
							"name": "age",
							"type": "uint256"
						},
						{
							"internalType": "bool",
							"name": "is_registered",
							"type": "bool"
						}
					],
					"stateMutability": "view",
					"type": "function"
				}
			],
			"devdoc": {
				"kind": "dev",
				"methods": {},
				"version": 1
			},
			"evm": {
				"assembly": "    /* \"user_profile.sol\":61:602  contract User_Profile{... */\n  mstore(0x40, 0x80)\n  callvalue\n  dup1\n  iszero\n  tag_1\n  jumpi\n  0x00\n  dup1\n  revert\ntag_1:\n  pop\n  dataSize(sub_0)\n  dup1\n  dataOffset(sub_0)\n  0x00\n  codecopy\n  0x00\n  return\nstop\n\nsub_0: assembly {\n        /* \"user_profile.sol\":61:602  contract User_Profile{... */\n      mstore(0x40, 0x80)\n      callvalue\n      dup1\n      iszero\n      tag_1\n      jumpi\n      0x00\n      dup1\n      revert\n    tag_1:\n      pop\n      jumpi(tag_2, lt(calldatasize, 0x04))\n      shr(0xe0, calldataload(0x00))\n      dup1\n      0x71ad7221\n      eq\n      tag_3\n      jumpi\n      dup1\n      0xa87430ba\n      eq\n      tag_4\n      jumpi\n      dup1\n      0xb0ce739d\n      eq\n      tag_5\n      jumpi\n      dup1\n      0xea87152b\n      eq\n      tag_6\n      jumpi\n    tag_2:\n      0x00\n      dup1\n      revert\n        /* \"user_profile.sol\":427:595  function get_user(address _address) public view returns(string memory, uint){... */\n    tag_3:\n      tag_7\n      0x04\n      dup1\n      calldatasize\n      sub\n      dup2\n      add\n      swap1\n      tag_8\n      swap2\n      swap1\n      tag_9\n      jump\t// in\n    tag_8:\n      tag_10\n      jump\t// in\n    tag_7:\n      mload(0x40)\n      tag_11\n      swap3\n      swap2\n      swap1\n      tag_12\n      jump\t// in\n    tag_11:\n      mload(0x40)\n      dup1\n      swap2\n      sub\n      swap1\n      return\n        /* \"user_profile.sol\":184:221  mapping(address => User) public users */\n    tag_4:\n      tag_13\n      0x04\n      dup1\n      calldatasize\n      sub\n      dup2\n      add\n      swap1\n      tag_14\n      swap2\n      swap1\n      tag_9\n      jump\t// in\n    tag_14:\n      tag_15\n      jump\t// in\n    tag_13:\n      mload(0x40)\n      tag_16\n      swap4\n      swap3\n      swap2\n      swap1\n      tag_17\n      jump\t// in\n    tag_16:\n      mload(0x40)\n      dup1\n      swap2\n      sub\n      swap1\n      return\n        /* \"user_profile.sol\":228:254  address[] public user_list */\n    tag_5:\n      tag_18\n      0x04\n      dup1\n      calldatasize\n      sub\n      dup2\n      add\n      swap1\n      tag_19\n      swap2\n      swap1\n      tag_20\n      jump\t// in\n    tag_19:\n      tag_21\n      jump\t// in\n    tag_18:\n      mload(0x40)\n      tag_22\n      swap2\n      swap1\n      tag_23\n      jump\t// in\n    tag_22:\n      mload(0x40)\n      dup1\n      swap2\n      sub\n      swap1\n      return\n        /* \"user_profile.sol\":263:419  function register(string memory _name, uint _age) public {... */\n    tag_6:\n      tag_24\n      0x04\n      dup1\n      calldatasize\n      sub\n      dup2\n      add\n      swap1\n      tag_25\n      swap2\n      swap1\n      tag_26\n      jump\t// in\n    tag_25:\n      tag_27\n      jump\t// in\n    tag_24:\n      stop\n        /* \"user_profile.sol\":427:595  function get_user(address _address) public view returns(string memory, uint){... */\n    tag_10:\n        /* \"user_profile.sol\":483:496  string memory */\n      0x60\n        /* \"user_profile.sol\":498:502  uint */\n      0x00\n        /* \"user_profile.sol\":514:530  User memory user */\n      dup1\n        /* \"user_profile.sol\":533:538  users */\n      0x00\n        /* \"user_profile.sol\":533:548  users[_address] */\n      dup1\n        /* \"user_profile.sol\":539:547  _address */\n      dup6\n        /* \"user_profile.sol\":533:548  users[_address] */\n      0xffffffffffffffffffffffffffffffffffffffff\n      and\n      0xffffffffffffffffffffffffffffffffffffffff\n      and\n      dup2\n      mstore\n      0x20\n      add\n      swap1\n      dup2\n      mstore\n      0x20\n      add\n      0x00\n      keccak256\n        /* \"user_profile.sol\":514:548  User memory user = users[_address] */\n      mload(0x40)\n      dup1\n      0x60\n      add\n      0x40\n      mstore\n      swap1\n      dup2\n      0x00\n      dup3\n      add\n      dup1\n      sload\n      tag_29\n      swap1\n      tag_30\n      jump\t// in\n    tag_29:\n      dup1\n      0x1f\n      add\n      0x20\n      dup1\n      swap2\n      div\n      mul\n      0x20\n      add\n      mload(0x40)\n      swap1\n      dup2\n      add\n      0x40\n      mstore\n      dup1\n      swap3\n      swap2\n      swap1\n      dup2\n      dup2\n      mstore\n      0x20\n      add\n      dup3\n      dup1\n      sload\n      tag_31\n      swap1\n      tag_30\n      jump\t// in\n    tag_31:\n      dup1\n      iszero\n      tag_32\n      jumpi\n      dup1\n      0x1f\n      lt\n      tag_33\n      jumpi\n      0x0100\n      dup1\n      dup4\n      sload\n      div\n      mul\n      dup4\n      mstore\n      swap2\n      0x20\n      add\n      swap2\n      jump(tag_32)\n    tag_33:\n      dup3\n      add\n      swap2\n      swap1\n      0x00\n      mstore\n      keccak256(0x00, 0x20)\n      swap1\n    tag_34:\n      dup2\n      sload\n      dup2\n      mstore\n      swap1\n      0x01\n      add\n      swap1\n      0x20\n      add\n      dup1\n      dup4\n      gt\n      tag_34\n      jumpi\n      dup3\n      swap1\n      sub\n      0x1f\n      and\n      dup3\n      add\n      swap2\n    tag_32:\n      pop\n      pop\n      pop\n      pop\n      pop\n      dup2\n      mstore\n      0x20\n      add\n      0x01\n      dup3\n      add\n      sload\n      dup2\n      mstore\n      0x20\n      add\n      0x02\n      dup3\n      add\n      0x00\n      swap1\n      sload\n      swap1\n      0x0100\n      exp\n      swap1\n      div\n      0xff\n      and\n      iszero\n      iszero\n      iszero\n      iszero\n      dup2\n      mstore\n      pop\n      pop\n      swap1\n      pop\n        /* \"user_profile.sol\":567:571  user */\n      dup1\n        /* \"user_profile.sol\":567:576  user.name */\n      0x00\n      add\n      mload\n        /* \"user_profile.sol\":578:582  user */\n      dup2\n        /* \"user_profile.sol\":578:586  user.age */\n      0x20\n      add\n      mload\n        /* \"user_profile.sol\":559:587  return (user.name, user.age) */\n      swap3\n      pop\n      swap3\n      pop\n      pop\n        /* \"user_profile.sol\":427:595  function get_user(address _address) public view returns(string memory, uint){... */\n      swap2\n      pop\n      swap2\n      jump\t// out\n        /* \"user_profile.sol\":184:221  mapping(address => User) public users */\n    tag_15:\n      mstore(0x20, 0x00)\n      dup1\n      0x00\n      mstore\n      keccak256(0x00, 0x40)\n      0x00\n      swap2\n      pop\n      swap1\n      pop\n      dup1\n      0x00\n      add\n      dup1\n      sload\n      tag_35\n      swap1\n      tag_30\n      jump\t// in\n    tag_35:\n      dup1\n      0x1f\n      add\n      0x20\n      dup1\n      swap2\n      div\n      mul\n      0x20\n      add\n      mload(0x40)\n      swap1\n      dup2\n      add\n      0x40\n      mstore\n      dup1\n      swap3\n      swap2\n      swap1\n      dup2\n      dup2\n      mstore\n      0x20\n      add\n      dup3\n      dup1\n      sload\n      tag_36\n      swap1\n      tag_30\n      jump\t// in\n    tag_36:\n      dup1\n      iszero\n      tag_37\n      jumpi\n      dup1\n      0x1f\n      lt\n      tag_38\n      jumpi\n      0x0100\n      dup1\n      dup4\n      sload\n      div\n      mul\n      dup4\n      mstore\n      swap2\n      0x20\n      add\n      swap2\n      jump(tag_37)\n    tag_38:\n      dup3\n      add\n      swap2\n      swap1\n      0x00\n      mstore\n      keccak256(0x00, 0x20)\n      swap1\n    tag_39:\n      dup2\n      sload\n      dup2\n      mstore\n      swap1\n      0x01\n      add\n      swap1\n      0x20\n      add\n      dup1\n      dup4\n      gt\n      tag_39\n      jumpi\n      dup3\n      swap1\n      sub\n      0x1f\n      and\n      dup3\n      add\n      swap2\n    tag_37:\n      pop\n      pop\n      pop\n      pop\n      pop\n      swap1\n      dup1\n      0x01\n      add\n      sload\n      swap1\n      dup1\n      0x02\n      add\n      0x00\n      swap1\n      sload\n      swap1\n      0x0100\n      exp\n      swap1\n      div\n      0xff\n      and\n      swap1\n      pop\n      dup4\n      jump\t// out\n        /* \"user_profile.sol\":228:254  address[] public user_list */\n    tag_21:\n      0x01\n      dup2\n      dup2\n      sload\n      dup2\n      lt\n      tag_40\n      jumpi\n      0x00\n      dup1\n      revert\n    tag_40:\n      swap1\n      0x00\n      mstore\n      keccak256(0x00, 0x20)\n      add\n      0x00\n      swap2\n      pop\n      sload\n      swap1\n      0x0100\n      exp\n      swap1\n      div\n      0xffffffffffffffffffffffffffffffffffffffff\n      and\n      dup2\n      jump\t// out\n        /* \"user_profile.sol\":263:419  function register(string memory _name, uint _age) public {... */\n    tag_27:\n        /* \"user_profile.sol\":351:374  User(_name, _age, true) */\n      mload(0x40)\n      dup1\n      0x60\n      add\n      0x40\n      mstore\n      dup1\n        /* \"user_profile.sol\":356:361  _name */\n      dup4\n        /* \"user_profile.sol\":351:374  User(_name, _age, true) */\n      dup2\n      mstore\n      0x20\n      add\n        /* \"user_profile.sol\":363:367  _age */\n      dup3\n        /* \"user_profile.sol\":351:374  User(_name, _age, true) */\n      dup2\n      mstore\n      0x20\n      add\n        /* \"user_profile.sol\":369:373  true */\n      0x01\n        /* \"user_profile.sol\":351:374  User(_name, _age, true) */\n      iszero\n      iszero\n      dup2\n      mstore\n      pop\n        /* \"user_profile.sol\":331:336  users */\n      0x00\n        /* \"user_profile.sol\":331:348  users[msg.sender] */\n      dup1\n        /* \"user_profile.sol\":337:347  msg.sender */\n      caller\n        /* \"user_profile.sol\":331:348  users[msg.sender] */\n      0xffffffffffffffffffffffffffffffffffffffff\n      and\n      0xffffffffffffffffffffffffffffffffffffffff\n      and\n      dup2\n      mstore\n      0x20\n      add\n      swap1\n      dup2\n      mstore\n      0x20\n      add\n      0x00\n      keccak256\n        /* \"user_profile.sol\":331:374  users[msg.sender] = User(_name, _age, true) */\n      0x00\n      dup3\n      add\n      mload\n      dup2\n      0x00\n      add\n      swap1\n      dup2\n      tag_43\n      swap2\n      swap1\n      tag_44\n      jump\t// in\n    tag_43:\n      pop\n      0x20\n      dup3\n      add\n      mload\n      dup2\n      0x01\n      add\n      sstore\n      0x40\n      dup3\n      add\n      mload\n      dup2\n      0x02\n      add\n      exp(0x0100, 0x00)\n      dup2\n      sload\n      dup2\n      0xff\n      mul\n      not\n      and\n      swap1\n      dup4\n      iszero\n      iszero\n      mul\n      or\n      swap1\n      sstore\n      pop\n      swap1\n      pop\n      pop\n        /* \"user_profile.sol\":385:394  user_list */\n      0x01\n        /* \"user_profile.sol\":400:410  msg.sender */\n      caller\n        /* \"user_profile.sol\":385:411  user_list.push(msg.sender) */\n      swap1\n      dup1\n      0x01\n      dup2\n      sload\n      add\n      dup1\n      dup3\n      sstore\n      dup1\n      swap2\n      pop\n      pop\n      0x01\n      swap1\n      sub\n      swap1\n      0x00\n      mstore\n      keccak256(0x00, 0x20)\n      add\n      0x00\n      swap1\n      swap2\n      swap1\n      swap2\n      swap1\n      swap2\n      0x0100\n      exp\n      dup2\n      sload\n      dup2\n      0xffffffffffffffffffffffffffffffffffffffff\n      mul\n      not\n      and\n      swap1\n      dup4\n      0xffffffffffffffffffffffffffffffffffffffff\n      and\n      mul\n      or\n      swap1\n      sstore\n      pop\n        /* \"user_profile.sol\":263:419  function register(string memory _name, uint _age) public {... */\n      pop\n      pop\n      jump\t// out\n        /* \"#utility.yul\":7:82   */\n    tag_46:\n        /* \"#utility.yul\":40:46   */\n      0x00\n        /* \"#utility.yul\":73:75   */\n      0x40\n        /* \"#utility.yul\":67:76   */\n      mload\n        /* \"#utility.yul\":57:76   */\n      swap1\n      pop\n        /* \"#utility.yul\":7:82   */\n      swap1\n      jump\t// out\n        /* \"#utility.yul\":88:205   */\n    tag_47:\n        /* \"#utility.yul\":197:198   */\n      0x00\n        /* \"#utility.yul\":194:195   */\n      dup1\n        /* \"#utility.yul\":187:199   */\n      revert\n        /* \"#utility.yul\":211:328   */\n    tag_48:\n        /* \"#utility.yul\":320:321   */\n      0x00\n        /* \"#utility.yul\":317:318   */\n      dup1\n        /* \"#utility.yul\":310:322   */\n      revert\n        /* \"#utility.yul\":334:460   */\n    tag_49:\n        /* \"#utility.yul\":371:378   */\n      0x00\n        /* \"#utility.yul\":411:453   */\n      0xffffffffffffffffffffffffffffffffffffffff\n        /* \"#utility.yul\":404:409   */\n      dup3\n        /* \"#utility.yul\":400:454   */\n      and\n        /* \"#utility.yul\":389:454   */\n      swap1\n      pop\n        /* \"#utility.yul\":334:460   */\n      swap2\n      swap1\n      pop\n      jump\t// out\n        /* \"#utility.yul\":466:562   */\n    tag_50:\n        /* \"#utility.yul\":503:510   */\n      0x00\n        /* \"#utility.yul\":532:556   */\n      tag_96\n        /* \"#utility.yul\":550:555   */\n      dup3\n        /* \"#utility.yul\":532:556   */\n      tag_49\n      jump\t// in\n    tag_96:\n        /* \"#utility.yul\":521:556   */\n      swap1\n      pop\n        /* \"#utility.yul\":466:562   */\n      swap2\n      swap1\n      pop\n      jump\t// out\n        /* \"#utility.yul\":568:690   */\n    tag_51:\n        /* \"#utility.yul\":641:665   */\n      tag_98\n        /* \"#utility.yul\":659:664   */\n      dup2\n        /* \"#utility.yul\":641:665   */\n      tag_50\n      jump\t// in\n    tag_98:\n        /* \"#utility.yul\":634:639   */\n      dup2\n        /* \"#utility.yul\":631:666   */\n      eq\n        /* \"#utility.yul\":621:684   */\n      tag_99\n      jumpi\n        /* \"#utility.yul\":680:681   */\n      0x00\n        /* \"#utility.yul\":677:678   */\n      dup1\n        /* \"#utility.yul\":670:682   */\n      revert\n        /* \"#utility.yul\":621:684   */\n    tag_99:\n        /* \"#utility.yul\":568:690   */\n      pop\n      jump\t// out\n        /* \"#utility.yul\":696:835   */\n    tag_52:\n        /* \"#utility.yul\":742:747   */\n      0x00\n        /* \"#utility.yul\":780:786   */\n      dup2\n        /* \"#utility.yul\":767:787   */\n      calldataload\n        /* \"#utility.yul\":758:787   */\n      swap1\n      pop\n        /* \"#utility.yul\":796:829   */\n      tag_101\n        /* \"#utility.yul\":823:828   */\n      dup2\n        /* \"#utility.yul\":796:829   */\n      tag_51\n      jump\t// in\n    tag_101:\n        /* \"#utility.yul\":696:835   */\n      swap3\n      swap2\n      pop\n      pop\n      jump\t// out\n        /* \"#utility.yul\":841:1170   */\n    tag_9:\n        /* \"#utility.yul\":900:906   */\n      0x00\n        /* \"#utility.yul\":949:951   */\n      0x20\n        /* \"#utility.yul\":937:946   */\n      dup3\n        /* \"#utility.yul\":928:935   */\n      dup5\n        /* \"#utility.yul\":924:947   */\n      sub\n        /* \"#utility.yul\":920:952   */\n      slt\n        /* \"#utility.yul\":917:1036   */\n      iszero\n      tag_103\n      jumpi\n        /* \"#utility.yul\":955:1034   */\n      tag_104\n      tag_47\n      jump\t// in\n    tag_104:\n        /* \"#utility.yul\":917:1036   */\n    tag_103:\n        /* \"#utility.yul\":1075:1076   */\n      0x00\n        /* \"#utility.yul\":1100:1153   */\n      tag_105\n        /* \"#utility.yul\":1145:1152   */\n      dup5\n        /* \"#utility.yul\":1136:1142   */\n      dup3\n        /* \"#utility.yul\":1125:1134   */\n      dup6\n        /* \"#utility.yul\":1121:1143   */\n      add\n        /* \"#utility.yul\":1100:1153   */\n      tag_52\n      jump\t// in\n    tag_105:\n        /* \"#utility.yul\":1090:1153   */\n      swap2\n      pop\n        /* \"#utility.yul\":1046:1163   */\n      pop\n        /* \"#utility.yul\":841:1170   */\n      swap3\n      swap2\n      pop\n      pop\n      jump\t// out\n        /* \"#utility.yul\":1176:1275   */\n    tag_53:\n        /* \"#utility.yul\":1228:1234   */\n      0x00\n        /* \"#utility.yul\":1262:1267   */\n      dup2\n        /* \"#utility.yul\":1256:1268   */\n      mload\n        /* \"#utility.yul\":1246:1268   */\n      swap1\n      pop\n        /* \"#utility.yul\":1176:1275   */\n      swap2\n      swap1\n      pop\n      jump\t// out\n        /* \"#utility.yul\":1281:1450   */\n    tag_54:\n        /* \"#utility.yul\":1365:1376   */\n      0x00\n        /* \"#utility.yul\":1399:1405   */\n      dup3\n        /* \"#utility.yul\":1394:1397   */\n      dup3\n        /* \"#utility.yul\":1387:1406   */\n      mstore\n        /* \"#utility.yul\":1439:1443   */\n      0x20\n        /* \"#utility.yul\":1434:1437   */\n      dup3\n        /* \"#utility.yul\":1430:1444   */\n      add\n        /* \"#utility.yul\":1415:1444   */\n      swap1\n      pop\n        /* \"#utility.yul\":1281:1450   */\n      swap3\n      swap2\n      pop\n      pop\n      jump\t// out\n        /* \"#utility.yul\":1456:1702   */\n    tag_55:\n        /* \"#utility.yul\":1537:1538   */\n      0x00\n        /* \"#utility.yul\":1547:1660   */\n    tag_109:\n        /* \"#utility.yul\":1561:1567   */\n      dup4\n        /* \"#utility.yul\":1558:1559   */\n      dup2\n        /* \"#utility.yul\":1555:1568   */\n      lt\n        /* \"#utility.yul\":1547:1660   */\n      iszero\n      tag_111\n      jumpi\n        /* \"#utility.yul\":1646:1647   */\n      dup1\n        /* \"#utility.yul\":1641:1644   */\n      dup3\n        /* \"#utility.yul\":1637:1648   */\n      add\n        /* \"#utility.yul\":1631:1649   */\n      mload\n        /* \"#utility.yul\":1627:1628   */\n      dup2\n        /* \"#utility.yul\":1622:1625   */\n      dup5\n        /* \"#utility.yul\":1618:1629   */\n      add\n        /* \"#utility.yul\":1611:1650   */\n      mstore\n        /* \"#utility.yul\":1583:1585   */\n      0x20\n        /* \"#utility.yul\":1580:1581   */\n      dup2\n        /* \"#utility.yul\":1576:1586   */\n      add\n        /* \"#utility.yul\":1571:1586   */\n      swap1\n      pop\n        /* \"#utility.yul\":1547:1660   */\n      jump(tag_109)\n    tag_111:\n        /* \"#utility.yul\":1694:1695   */\n      0x00\n        /* \"#utility.yul\":1685:1691   */\n      dup5\n        /* \"#utility.yul\":1680:1683   */\n      dup5\n        /* \"#utility.yul\":1676:1692   */\n      add\n        /* \"#utility.yul\":1669:1696   */\n      mstore\n        /* \"#utility.yul\":1518:1702   */\n      pop\n        /* \"#utility.yul\":1456:1702   */\n      pop\n      pop\n      pop\n      jump\t// out\n        /* \"#utility.yul\":1708:1810   */\n    tag_56:\n        /* \"#utility.yul\":1749:1755   */\n      0x00\n        /* \"#utility.yul\":1800:1802   */\n      0x1f\n        /* \"#utility.yul\":1796:1803   */\n      not\n        /* \"#utility.yul\":1791:1793   */\n      0x1f\n        /* \"#utility.yul\":1784:1789   */\n      dup4\n        /* \"#utility.yul\":1780:1794   */\n      add\n        /* \"#utility.yul\":1776:1804   */\n      and\n        /* \"#utility.yul\":1766:1804   */\n      swap1\n      pop\n        /* \"#utility.yul\":1708:1810   */\n      swap2\n      swap1\n      pop\n      jump\t// out\n        /* \"#utility.yul\":1816:2193   */\n    tag_57:\n        /* \"#utility.yul\":1904:1907   */\n      0x00\n        /* \"#utility.yul\":1932:1971   */\n      tag_114\n        /* \"#utility.yul\":1965:1970   */\n      dup3\n        /* \"#utility.yul\":1932:1971   */\n      tag_53\n      jump\t// in\n    tag_114:\n        /* \"#utility.yul\":1987:2058   */\n      tag_115\n        /* \"#utility.yul\":2051:2057   */\n      dup2\n        /* \"#utility.yul\":2046:2049   */\n      dup6\n        /* \"#utility.yul\":1987:2058   */\n      tag_54\n      jump\t// in\n    tag_115:\n        /* \"#utility.yul\":1980:2058   */\n      swap4\n      pop\n        /* \"#utility.yul\":2067:2132   */\n      tag_116\n        /* \"#utility.yul\":2125:2131   */\n      dup2\n        /* \"#utility.yul\":2120:2123   */\n      dup6\n        /* \"#utility.yul\":2113:2117   */\n      0x20\n        /* \"#utility.yul\":2106:2111   */\n      dup7\n        /* \"#utility.yul\":2102:2118   */\n      add\n        /* \"#utility.yul\":2067:2132   */\n      tag_55\n      jump\t// in\n    tag_116:\n        /* \"#utility.yul\":2157:2186   */\n      tag_117\n        /* \"#utility.yul\":2179:2185   */\n      dup2\n        /* \"#utility.yul\":2157:2186   */\n      tag_56\n      jump\t// in\n    tag_117:\n        /* \"#utility.yul\":2152:2155   */\n      dup5\n        /* \"#utility.yul\":2148:2187   */\n      add\n        /* \"#utility.yul\":2141:2187   */\n      swap2\n      pop\n        /* \"#utility.yul\":1908:2193   */\n      pop\n        /* \"#utility.yul\":1816:2193   */\n      swap3\n      swap2\n      pop\n      pop\n      jump\t// out\n        /* \"#utility.yul\":2199:2276   */\n    tag_58:\n        /* \"#utility.yul\":2236:2243   */\n      0x00\n        /* \"#utility.yul\":2265:2270   */\n      dup2\n        /* \"#utility.yul\":2254:2270   */\n      swap1\n      pop\n        /* \"#utility.yul\":2199:2276   */\n      swap2\n      swap1\n      pop\n      jump\t// out\n        /* \"#utility.yul\":2282:2400   */\n    tag_59:\n        /* \"#utility.yul\":2369:2393   */\n      tag_120\n        /* \"#utility.yul\":2387:2392   */\n      dup2\n        /* \"#utility.yul\":2369:2393   */\n      tag_58\n      jump\t// in\n    tag_120:\n        /* \"#utility.yul\":2364:2367   */\n      dup3\n        /* \"#utility.yul\":2357:2394   */\n      mstore\n        /* \"#utility.yul\":2282:2400   */\n      pop\n      pop\n      jump\t// out\n        /* \"#utility.yul\":2406:2829   */\n    tag_12:\n        /* \"#utility.yul\":2547:2551   */\n      0x00\n        /* \"#utility.yul\":2585:2587   */\n      0x40\n        /* \"#utility.yul\":2574:2583   */\n      dup3\n        /* \"#utility.yul\":2570:2588   */\n      add\n        /* \"#utility.yul\":2562:2588   */\n      swap1\n      pop\n        /* \"#utility.yul\":2634:2643   */\n      dup2\n        /* \"#utility.yul\":2628:2632   */\n      dup2\n        /* \"#utility.yul\":2624:2644   */\n      sub\n        /* \"#utility.yul\":2620:2621   */\n      0x00\n        /* \"#utility.yul\":2609:2618   */\n      dup4\n        /* \"#utility.yul\":2605:2622   */\n      add\n        /* \"#utility.yul\":2598:2645   */\n      mstore\n        /* \"#utility.yul\":2662:2740   */\n      tag_122\n        /* \"#utility.yul\":2735:2739   */\n      dup2\n        /* \"#utility.yul\":2726:2732   */\n      dup6\n        /* \"#utility.yul\":2662:2740   */\n      tag_57\n      jump\t// in\n    tag_122:\n        /* \"#utility.yul\":2654:2740   */\n      swap1\n      pop\n        /* \"#utility.yul\":2750:2822   */\n      tag_123\n        /* \"#utility.yul\":2818:2820   */\n      0x20\n        /* \"#utility.yul\":2807:2816   */\n      dup4\n        /* \"#utility.yul\":2803:2821   */\n      add\n        /* \"#utility.yul\":2794:2800   */\n      dup5\n        /* \"#utility.yul\":2750:2822   */\n      tag_59\n      jump\t// in\n    tag_123:\n        /* \"#utility.yul\":2406:2829   */\n      swap4\n      swap3\n      pop\n      pop\n      pop\n      jump\t// out\n        /* \"#utility.yul\":2835:2925   */\n    tag_60:\n        /* \"#utility.yul\":2869:2876   */\n      0x00\n        /* \"#utility.yul\":2912:2917   */\n      dup2\n        /* \"#utility.yul\":2905:2918   */\n      iszero\n        /* \"#utility.yul\":2898:2919   */\n      iszero\n        /* \"#utility.yul\":2887:2919   */\n      swap1\n      pop\n        /* \"#utility.yul\":2835:2925   */\n      swap2\n      swap1\n      pop\n      jump\t// out\n        /* \"#utility.yul\":2931:3040   */\n    tag_61:\n        /* \"#utility.yul\":3012:3033   */\n      tag_126\n        /* \"#utility.yul\":3027:3032   */\n      dup2\n        /* \"#utility.yul\":3012:3033   */\n      tag_60\n      jump\t// in\n    tag_126:\n        /* \"#utility.yul\":3007:3010   */\n      dup3\n        /* \"#utility.yul\":3000:3034   */\n      mstore\n        /* \"#utility.yul\":2931:3040   */\n      pop\n      pop\n      jump\t// out\n        /* \"#utility.yul\":3046:3567   */\n    tag_17:\n        /* \"#utility.yul\":3209:3213   */\n      0x00\n        /* \"#utility.yul\":3247:3249   */\n      0x60\n        /* \"#utility.yul\":3236:3245   */\n      dup3\n        /* \"#utility.yul\":3232:3250   */\n      add\n        /* \"#utility.yul\":3224:3250   */\n      swap1\n      pop\n        /* \"#utility.yul\":3296:3305   */\n      dup2\n        /* \"#utility.yul\":3290:3294   */\n      dup2\n        /* \"#utility.yul\":3286:3306   */\n      sub\n        /* \"#utility.yul\":3282:3283   */\n      0x00\n        /* \"#utility.yul\":3271:3280   */\n      dup4\n        /* \"#utility.yul\":3267:3284   */\n      add\n        /* \"#utility.yul\":3260:3307   */\n      mstore\n        /* \"#utility.yul\":3324:3402   */\n      tag_128\n        /* \"#utility.yul\":3397:3401   */\n      dup2\n        /* \"#utility.yul\":3388:3394   */\n      dup7\n        /* \"#utility.yul\":3324:3402   */\n      tag_57\n      jump\t// in\n    tag_128:\n        /* \"#utility.yul\":3316:3402   */\n      swap1\n      pop\n        /* \"#utility.yul\":3412:3484   */\n      tag_129\n        /* \"#utility.yul\":3480:3482   */\n      0x20\n        /* \"#utility.yul\":3469:3478   */\n      dup4\n        /* \"#utility.yul\":3465:3483   */\n      add\n        /* \"#utility.yul\":3456:3462   */\n      dup6\n        /* \"#utility.yul\":3412:3484   */\n      tag_59\n      jump\t// in\n    tag_129:\n        /* \"#utility.yul\":3494:3560   */\n      tag_130\n        /* \"#utility.yul\":3556:3558   */\n      0x40\n        /* \"#utility.yul\":3545:3554   */\n      dup4\n        /* \"#utility.yul\":3541:3559   */\n      add\n        /* \"#utility.yul\":3532:3538   */\n      dup5\n        /* \"#utility.yul\":3494:3560   */\n      tag_61\n      jump\t// in\n    tag_130:\n        /* \"#utility.yul\":3046:3567   */\n      swap5\n      swap4\n      pop\n      pop\n      pop\n      pop\n      jump\t// out\n        /* \"#utility.yul\":3573:3695   */\n    tag_62:\n        /* \"#utility.yul\":3646:3670   */\n      tag_132\n        /* \"#utility.yul\":3664:3669   */\n      dup2\n        /* \"#utility.yul\":3646:3670   */\n      tag_58\n      jump\t// in\n    tag_132:\n        /* \"#utility.yul\":3639:3644   */\n      dup2\n        /* \"#utility.yul\":3636:3671   */\n      eq\n        /* \"#utility.yul\":3626:3689   */\n      tag_133\n      jumpi\n        /* \"#utility.yul\":3685:3686   */\n      0x00\n        /* \"#utility.yul\":3682:3683   */\n      dup1\n        /* \"#utility.yul\":3675:3687   */\n      revert\n        /* \"#utility.yul\":3626:3689   */\n    tag_133:\n        /* \"#utility.yul\":3573:3695   */\n      pop\n      jump\t// out\n        /* \"#utility.yul\":3701:3840   */\n    tag_63:\n        /* \"#utility.yul\":3747:3752   */\n      0x00\n        /* \"#utility.yul\":3785:3791   */\n      dup2\n        /* \"#utility.yul\":3772:3792   */\n      calldataload\n        /* \"#utility.yul\":3763:3792   */\n      swap1\n      pop\n        /* \"#utility.yul\":3801:3834   */\n      tag_135\n        /* \"#utility.yul\":3828:3833   */\n      dup2\n        /* \"#utility.yul\":3801:3834   */\n      tag_62\n      jump\t// in\n    tag_135:\n        /* \"#utility.yul\":3701:3840   */\n      swap3\n      swap2\n      pop\n      pop\n      jump\t// out\n        /* \"#utility.yul\":3846:4175   */\n    tag_20:\n        /* \"#utility.yul\":3905:3911   */\n      0x00\n        /* \"#utility.yul\":3954:3956   */\n      0x20\n        /* \"#utility.yul\":3942:3951   */\n      dup3\n        /* \"#utility.yul\":3933:3940   */\n      dup5\n        /* \"#utility.yul\":3929:3952   */\n      sub\n        /* \"#utility.yul\":3925:3957   */\n      slt\n        /* \"#utility.yul\":3922:4041   */\n      iszero\n      tag_137\n      jumpi\n        /* \"#utility.yul\":3960:4039   */\n      tag_138\n      tag_47\n      jump\t// in\n    tag_138:\n        /* \"#utility.yul\":3922:4041   */\n    tag_137:\n        /* \"#utility.yul\":4080:4081   */\n      0x00\n        /* \"#utility.yul\":4105:4158   */\n      tag_139\n        /* \"#utility.yul\":4150:4157   */\n      dup5\n        /* \"#utility.yul\":4141:4147   */\n      dup3\n        /* \"#utility.yul\":4130:4139   */\n      dup6\n        /* \"#utility.yul\":4126:4148   */\n      add\n        /* \"#utility.yul\":4105:4158   */\n      tag_63\n      jump\t// in\n    tag_139:\n        /* \"#utility.yul\":4095:4158   */\n      swap2\n      pop\n        /* \"#utility.yul\":4051:4168   */\n      pop\n        /* \"#utility.yul\":3846:4175   */\n      swap3\n      swap2\n      pop\n      pop\n      jump\t// out\n        /* \"#utility.yul\":4181:4299   */\n    tag_64:\n        /* \"#utility.yul\":4268:4292   */\n      tag_141\n        /* \"#utility.yul\":4286:4291   */\n      dup2\n        /* \"#utility.yul\":4268:4292   */\n      tag_50\n      jump\t// in\n    tag_141:\n        /* \"#utility.yul\":4263:4266   */\n      dup3\n        /* \"#utility.yul\":4256:4293   */\n      mstore\n        /* \"#utility.yul\":4181:4299   */\n      pop\n      pop\n      jump\t// out\n        /* \"#utility.yul\":4305:4527   */\n    tag_23:\n        /* \"#utility.yul\":4398:4402   */\n      0x00\n        /* \"#utility.yul\":4436:4438   */\n      0x20\n        /* \"#utility.yul\":4425:4434   */\n      dup3\n        /* \"#utility.yul\":4421:4439   */\n      add\n        /* \"#utility.yul\":4413:4439   */\n      swap1\n      pop\n        /* \"#utility.yul\":4449:4520   */\n      tag_143\n        /* \"#utility.yul\":4517:4518   */\n      0x00\n        /* \"#utility.yul\":4506:4515   */\n      dup4\n        /* \"#utility.yul\":4502:4519   */\n      add\n        /* \"#utility.yul\":4493:4499   */\n      dup5\n        /* \"#utility.yul\":4449:4520   */\n      tag_64\n      jump\t// in\n    tag_143:\n        /* \"#utility.yul\":4305:4527   */\n      swap3\n      swap2\n      pop\n      pop\n      jump\t// out\n        /* \"#utility.yul\":4533:4650   */\n    tag_65:\n        /* \"#utility.yul\":4642:4643   */\n      0x00\n        /* \"#utility.yul\":4639:4640   */\n      dup1\n        /* \"#utility.yul\":4632:4644   */\n      revert\n        /* \"#utility.yul\":4656:4773   */\n    tag_66:\n        /* \"#utility.yul\":4765:4766   */\n      0x00\n        /* \"#utility.yul\":4762:4763   */\n      dup1\n        /* \"#utility.yul\":4755:4767   */\n      revert\n        /* \"#utility.yul\":4779:4959   */\n    tag_67:\n        /* \"#utility.yul\":4827:4904   */\n      0x4e487b7100000000000000000000000000000000000000000000000000000000\n        /* \"#utility.yul\":4824:4825   */\n      0x00\n        /* \"#utility.yul\":4817:4905   */\n      mstore\n        /* \"#utility.yul\":4924:4928   */\n      0x41\n        /* \"#utility.yul\":4921:4922   */\n      0x04\n        /* \"#utility.yul\":4914:4929   */\n      mstore\n        /* \"#utility.yul\":4948:4952   */\n      0x24\n        /* \"#utility.yul\":4945:4946   */\n      0x00\n        /* \"#utility.yul\":4938:4953   */\n      revert\n        /* \"#utility.yul\":4965:5246   */\n    tag_68:\n        /* \"#utility.yul\":5048:5075   */\n      tag_148\n        /* \"#utility.yul\":5070:5074   */\n      dup3\n        /* \"#utility.yul\":5048:5075   */\n      tag_56\n      jump\t// in\n    tag_148:\n        /* \"#utility.yul\":5040:5046   */\n      dup2\n        /* \"#utility.yul\":5036:5076   */\n      add\n        /* \"#utility.yul\":5178:5184   */\n      dup2\n        /* \"#utility.yul\":5166:5176   */\n      dup2\n        /* \"#utility.yul\":5163:5185   */\n      lt\n        /* \"#utility.yul\":5142:5160   */\n      0xffffffffffffffff\n        /* \"#utility.yul\":5130:5140   */\n      dup3\n        /* \"#utility.yul\":5127:5161   */\n      gt\n        /* \"#utility.yul\":5124:5186   */\n      or\n        /* \"#utility.yul\":5121:5209   */\n      iszero\n      tag_149\n      jumpi\n        /* \"#utility.yul\":5189:5207   */\n      tag_150\n      tag_67\n      jump\t// in\n    tag_150:\n        /* \"#utility.yul\":5121:5209   */\n    tag_149:\n        /* \"#utility.yul\":5229:5239   */\n      dup1\n        /* \"#utility.yul\":5225:5227   */\n      0x40\n        /* \"#utility.yul\":5218:5240   */\n      mstore\n        /* \"#utility.yul\":5008:5246   */\n      pop\n        /* \"#utility.yul\":4965:5246   */\n      pop\n      pop\n      jump\t// out\n        /* \"#utility.yul\":5252:5381   */\n    tag_69:\n        /* \"#utility.yul\":5286:5292   */\n      0x00\n        /* \"#utility.yul\":5313:5333   */\n      tag_152\n      tag_46\n      jump\t// in\n    tag_152:\n        /* \"#utility.yul\":5303:5333   */\n      swap1\n      pop\n        /* \"#utility.yul\":5342:5375   */\n      tag_153\n        /* \"#utility.yul\":5370:5374   */\n      dup3\n        /* \"#utility.yul\":5362:5368   */\n      dup3\n        /* \"#utility.yul\":5342:5375   */\n      tag_68\n      jump\t// in\n    tag_153:\n        /* \"#utility.yul\":5252:5381   */\n      swap2\n      swap1\n      pop\n      jump\t// out\n        /* \"#utility.yul\":5387:5695   */\n    tag_70:\n        /* \"#utility.yul\":5449:5453   */\n      0x00\n        /* \"#utility.yul\":5539:5557   */\n      0xffffffffffffffff\n        /* \"#utility.yul\":5531:5537   */\n      dup3\n        /* \"#utility.yul\":5528:5558   */\n      gt\n        /* \"#utility.yul\":5525:5581   */\n      iszero\n      tag_155\n      jumpi\n        /* \"#utility.yul\":5561:5579   */\n      tag_156\n      tag_67\n      jump\t// in\n    tag_156:\n        /* \"#utility.yul\":5525:5581   */\n    tag_155:\n        /* \"#utility.yul\":5599:5628   */\n      tag_157\n        /* \"#utility.yul\":5621:5627   */\n      dup3\n        /* \"#utility.yul\":5599:5628   */\n      tag_56\n      jump\t// in\n    tag_157:\n        /* \"#utility.yul\":5591:5628   */\n      swap1\n      pop\n        /* \"#utility.yul\":5683:5687   */\n      0x20\n        /* \"#utility.yul\":5677:5681   */\n      dup2\n        /* \"#utility.yul\":5673:5688   */\n      add\n        /* \"#utility.yul\":5665:5688   */\n      swap1\n      pop\n        /* \"#utility.yul\":5387:5695   */\n      swap2\n      swap1\n      pop\n      jump\t// out\n        /* \"#utility.yul\":5701:5847   */\n    tag_71:\n        /* \"#utility.yul\":5798:5804   */\n      dup3\n        /* \"#utility.yul\":5793:5796   */\n      dup2\n        /* \"#utility.yul\":5788:5791   */\n      dup4\n        /* \"#utility.yul\":5775:5805   */\n      calldatacopy\n        /* \"#utility.yul\":5839:5840   */\n      0x00\n        /* \"#utility.yul\":5830:5836   */\n      dup4\n        /* \"#utility.yul\":5825:5828   */\n      dup4\n        /* \"#utility.yul\":5821:5837   */\n      add\n        /* \"#utility.yul\":5814:5841   */\n      mstore\n        /* \"#utility.yul\":5701:5847   */\n      pop\n      pop\n      pop\n      jump\t// out\n        /* \"#utility.yul\":5853:6278   */\n    tag_72:\n        /* \"#utility.yul\":5931:5936   */\n      0x00\n        /* \"#utility.yul\":5956:6022   */\n      tag_160\n        /* \"#utility.yul\":5972:6021   */\n      tag_161\n        /* \"#utility.yul\":6014:6020   */\n      dup5\n        /* \"#utility.yul\":5972:6021   */\n      tag_70\n      jump\t// in\n    tag_161:\n        /* \"#utility.yul\":5956:6022   */\n      tag_69\n      jump\t// in\n    tag_160:\n        /* \"#utility.yul\":5947:6022   */\n      swap1\n      pop\n        /* \"#utility.yul\":6045:6051   */\n      dup3\n        /* \"#utility.yul\":6038:6043   */\n      dup2\n        /* \"#utility.yul\":6031:6052   */\n      mstore\n        /* \"#utility.yul\":6083:6087   */\n      0x20\n        /* \"#utility.yul\":6076:6081   */\n      dup2\n        /* \"#utility.yul\":6072:6088   */\n      add\n        /* \"#utility.yul\":6121:6124   */\n      dup5\n        /* \"#utility.yul\":6112:6118   */\n      dup5\n        /* \"#utility.yul\":6107:6110   */\n      dup5\n        /* \"#utility.yul\":6103:6119   */\n      add\n        /* \"#utility.yul\":6100:6125   */\n      gt\n        /* \"#utility.yul\":6097:6209   */\n      iszero\n      tag_162\n      jumpi\n        /* \"#utility.yul\":6128:6207   */\n      tag_163\n      tag_66\n      jump\t// in\n    tag_163:\n        /* \"#utility.yul\":6097:6209   */\n    tag_162:\n        /* \"#utility.yul\":6218:6272   */\n      tag_164\n        /* \"#utility.yul\":6265:6271   */\n      dup5\n        /* \"#utility.yul\":6260:6263   */\n      dup3\n        /* \"#utility.yul\":6255:6258   */\n      dup6\n        /* \"#utility.yul\":6218:6272   */\n      tag_71\n      jump\t// in\n    tag_164:\n        /* \"#utility.yul\":5937:6278   */\n      pop\n        /* \"#utility.yul\":5853:6278   */\n      swap4\n      swap3\n      pop\n      pop\n      pop\n      jump\t// out\n        /* \"#utility.yul\":6298:6638   */\n    tag_73:\n        /* \"#utility.yul\":6354:6359   */\n      0x00\n        /* \"#utility.yul\":6403:6406   */\n      dup3\n        /* \"#utility.yul\":6396:6400   */\n      0x1f\n        /* \"#utility.yul\":6388:6394   */\n      dup4\n        /* \"#utility.yul\":6384:6401   */\n      add\n        /* \"#utility.yul\":6380:6407   */\n      slt\n        /* \"#utility.yul\":6370:6492   */\n      tag_166\n      jumpi\n        /* \"#utility.yul\":6411:6490   */\n      tag_167\n      tag_65\n      jump\t// in\n    tag_167:\n        /* \"#utility.yul\":6370:6492   */\n    tag_166:\n        /* \"#utility.yul\":6528:6534   */\n      dup2\n        /* \"#utility.yul\":6515:6535   */\n      calldataload\n        /* \"#utility.yul\":6553:6632   */\n      tag_168\n        /* \"#utility.yul\":6628:6631   */\n      dup5\n        /* \"#utility.yul\":6620:6626   */\n      dup3\n        /* \"#utility.yul\":6613:6617   */\n      0x20\n        /* \"#utility.yul\":6605:6611   */\n      dup7\n        /* \"#utility.yul\":6601:6618   */\n      add\n        /* \"#utility.yul\":6553:6632   */\n      tag_72\n      jump\t// in\n    tag_168:\n        /* \"#utility.yul\":6544:6632   */\n      swap2\n      pop\n        /* \"#utility.yul\":6360:6638   */\n      pop\n        /* \"#utility.yul\":6298:6638   */\n      swap3\n      swap2\n      pop\n      pop\n      jump\t// out\n        /* \"#utility.yul\":6644:7298   */\n    tag_26:\n        /* \"#utility.yul\":6722:6728   */\n      0x00\n        /* \"#utility.yul\":6730:6736   */\n      dup1\n        /* \"#utility.yul\":6779:6781   */\n      0x40\n        /* \"#utility.yul\":6767:6776   */\n      dup4\n        /* \"#utility.yul\":6758:6765   */\n      dup6\n        /* \"#utility.yul\":6754:6777   */\n      sub\n        /* \"#utility.yul\":6750:6782   */\n      slt\n        /* \"#utility.yul\":6747:6866   */\n      iszero\n      tag_170\n      jumpi\n        /* \"#utility.yul\":6785:6864   */\n      tag_171\n      tag_47\n      jump\t// in\n    tag_171:\n        /* \"#utility.yul\":6747:6866   */\n    tag_170:\n        /* \"#utility.yul\":6933:6934   */\n      0x00\n        /* \"#utility.yul\":6922:6931   */\n      dup4\n        /* \"#utility.yul\":6918:6935   */\n      add\n        /* \"#utility.yul\":6905:6936   */\n      calldataload\n        /* \"#utility.yul\":6963:6981   */\n      0xffffffffffffffff\n        /* \"#utility.yul\":6955:6961   */\n      dup2\n        /* \"#utility.yul\":6952:6982   */\n      gt\n        /* \"#utility.yul\":6949:7066   */\n      iszero\n      tag_172\n      jumpi\n        /* \"#utility.yul\":6985:7064   */\n      tag_173\n      tag_48\n      jump\t// in\n    tag_173:\n        /* \"#utility.yul\":6949:7066   */\n    tag_172:\n        /* \"#utility.yul\":7090:7153   */\n      tag_174\n        /* \"#utility.yul\":7145:7152   */\n      dup6\n        /* \"#utility.yul\":7136:7142   */\n      dup3\n        /* \"#utility.yul\":7125:7134   */\n      dup7\n        /* \"#utility.yul\":7121:7143   */\n      add\n        /* \"#utility.yul\":7090:7153   */\n      tag_73\n      jump\t// in\n    tag_174:\n        /* \"#utility.yul\":7080:7153   */\n      swap3\n      pop\n        /* \"#utility.yul\":6876:7163   */\n      pop\n        /* \"#utility.yul\":7202:7204   */\n      0x20\n        /* \"#utility.yul\":7228:7281   */\n      tag_175\n        /* \"#utility.yul\":7273:7280   */\n      dup6\n        /* \"#utility.yul\":7264:7270   */\n      dup3\n        /* \"#utility.yul\":7253:7262   */\n      dup7\n        /* \"#utility.yul\":7249:7271   */\n      add\n        /* \"#utility.yul\":7228:7281   */\n      tag_63\n      jump\t// in\n    tag_175:\n        /* \"#utility.yul\":7218:7281   */\n      swap2\n      pop\n        /* \"#utility.yul\":7173:7291   */\n      pop\n        /* \"#utility.yul\":6644:7298   */\n      swap3\n      pop\n      swap3\n      swap1\n      pop\n      jump\t// out\n        /* \"#utility.yul\":7304:7484   */\n    tag_74:\n        /* \"#utility.yul\":7352:7429   */\n      0x4e487b7100000000000000000000000000000000000000000000000000000000\n        /* \"#utility.yul\":7349:7350   */\n      0x00\n        /* \"#utility.yul\":7342:7430   */\n      mstore\n        /* \"#utility.yul\":7449:7453   */\n      0x22\n        /* \"#utility.yul\":7446:7447   */\n      0x04\n        /* \"#utility.yul\":7439:7454   */\n      mstore\n        /* \"#utility.yul\":7473:7477   */\n      0x24\n        /* \"#utility.yul\":7470:7471   */\n      0x00\n        /* \"#utility.yul\":7463:7478   */\n      revert\n        /* \"#utility.yul\":7490:7810   */\n    tag_30:\n        /* \"#utility.yul\":7534:7540   */\n      0x00\n        /* \"#utility.yul\":7571:7572   */\n      0x02\n        /* \"#utility.yul\":7565:7569   */\n      dup3\n        /* \"#utility.yul\":7561:7573   */\n      div\n        /* \"#utility.yul\":7551:7573   */\n      swap1\n      pop\n        /* \"#utility.yul\":7618:7619   */\n      0x01\n        /* \"#utility.yul\":7612:7616   */\n      dup3\n        /* \"#utility.yul\":7608:7620   */\n      and\n        /* \"#utility.yul\":7639:7657   */\n      dup1\n        /* \"#utility.yul\":7629:7710   */\n      tag_178\n      jumpi\n        /* \"#utility.yul\":7695:7699   */\n      0x7f\n        /* \"#utility.yul\":7687:7693   */\n      dup3\n        /* \"#utility.yul\":7683:7700   */\n      and\n        /* \"#utility.yul\":7673:7700   */\n      swap2\n      pop\n        /* \"#utility.yul\":7629:7710   */\n    tag_178:\n        /* \"#utility.yul\":7757:7759   */\n      0x20\n        /* \"#utility.yul\":7749:7755   */\n      dup3\n        /* \"#utility.yul\":7746:7760   */\n      lt\n        /* \"#utility.yul\":7726:7744   */\n      dup2\n        /* \"#utility.yul\":7723:7761   */\n      sub\n        /* \"#utility.yul\":7720:7804   */\n      tag_179\n      jumpi\n        /* \"#utility.yul\":7776:7794   */\n      tag_180\n      tag_74\n      jump\t// in\n    tag_180:\n        /* \"#utility.yul\":7720:7804   */\n    tag_179:\n        /* \"#utility.yul\":7541:7810   */\n      pop\n        /* \"#utility.yul\":7490:7810   */\n      swap2\n      swap1\n      pop\n      jump\t// out\n        /* \"#utility.yul\":7816:7957   */\n    tag_75:\n        /* \"#utility.yul\":7865:7869   */\n      0x00\n        /* \"#utility.yul\":7888:7891   */\n      dup2\n        /* \"#utility.yul\":7880:7891   */\n      swap1\n      pop\n        /* \"#utility.yul\":7911:7914   */\n      dup2\n        /* \"#utility.yul\":7908:7909   */\n      0x00\n        /* \"#utility.yul\":7901:7915   */\n      mstore\n        /* \"#utility.yul\":7945:7949   */\n      0x20\n        /* \"#utility.yul\":7942:7943   */\n      0x00\n        /* \"#utility.yul\":7932:7950   */\n      keccak256\n        /* \"#utility.yul\":7924:7950   */\n      swap1\n      pop\n        /* \"#utility.yul\":7816:7957   */\n      swap2\n      swap1\n      pop\n      jump\t// out\n        /* \"#utility.yul\":7963:8056   */\n    tag_76:\n        /* \"#utility.yul\":8000:8006   */\n      0x00\n        /* \"#utility.yul\":8047:8049   */\n      0x20\n        /* \"#utility.yul\":8042:8044   */\n      0x1f\n        /* \"#utility.yul\":8035:8040   */\n      dup4\n        /* \"#utility.yul\":8031:8045   */\n      add\n        /* \"#utility.yul\":8027:8050   */\n      div\n        /* \"#utility.yul\":8017:8050   */\n      swap1\n      pop\n        /* \"#utility.yul\":7963:8056   */\n      swap2\n      swap1\n      pop\n      jump\t// out\n        /* \"#utility.yul\":8062:8169   */\n    tag_77:\n        /* \"#utility.yul\":8106:8114   */\n      0x00\n        /* \"#utility.yul\":8156:8161   */\n      dup3\n        /* \"#utility.yul\":8150:8154   */\n      dup3\n        /* \"#utility.yul\":8146:8162   */\n      shl\n        /* \"#utility.yul\":8125:8162   */\n      swap1\n      pop\n        /* \"#utility.yul\":8062:8169   */\n      swap3\n      swap2\n      pop\n      pop\n      jump\t// out\n        /* \"#utility.yul\":8175:8568   */\n    tag_78:\n        /* \"#utility.yul\":8244:8250   */\n      0x00\n        /* \"#utility.yul\":8294:8295   */\n      0x08\n        /* \"#utility.yul\":8282:8292   */\n      dup4\n        /* \"#utility.yul\":8278:8296   */\n      mul\n        /* \"#utility.yul\":8317:8414   */\n      tag_185\n        /* \"#utility.yul\":8347:8413   */\n      0xffffffffffffffffffffffffffffffffffffffffffffffffffffffffffffffff\n        /* \"#utility.yul\":8336:8345   */\n      dup3\n        /* \"#utility.yul\":8317:8414   */\n      tag_77\n      jump\t// in\n    tag_185:\n        /* \"#utility.yul\":8435:8474   */\n      tag_186\n        /* \"#utility.yul\":8465:8473   */\n      dup7\n        /* \"#utility.yul\":8454:8463   */\n      dup4\n        /* \"#utility.yul\":8435:8474   */\n      tag_77\n      jump\t// in\n    tag_186:\n        /* \"#utility.yul\":8423:8474   */\n      swap6\n      pop\n        /* \"#utility.yul\":8507:8511   */\n      dup1\n        /* \"#utility.yul\":8503:8512   */\n      not\n        /* \"#utility.yul\":8496:8501   */\n      dup5\n        /* \"#utility.yul\":8492:8513   */\n      and\n        /* \"#utility.yul\":8483:8513   */\n      swap4\n      pop\n        /* \"#utility.yul\":8556:8560   */\n      dup1\n        /* \"#utility.yul\":8546:8554   */\n      dup7\n        /* \"#utility.yul\":8542:8561   */\n      and\n        /* \"#utility.yul\":8535:8540   */\n      dup5\n        /* \"#utility.yul\":8532:8562   */\n      or\n        /* \"#utility.yul\":8522:8562   */\n      swap3\n      pop\n        /* \"#utility.yul\":8251:8568   */\n      pop\n      pop\n        /* \"#utility.yul\":8175:8568   */\n      swap4\n      swap3\n      pop\n      pop\n      pop\n      jump\t// out\n        /* \"#utility.yul\":8574:8634   */\n    tag_79:\n        /* \"#utility.yul\":8602:8605   */\n      0x00\n        /* \"#utility.yul\":8623:8628   */\n      dup2\n        /* \"#utility.yul\":8616:8628   */\n      swap1\n      pop\n        /* \"#utility.yul\":8574:8634   */\n      swap2\n      swap1\n      pop\n      jump\t// out\n        /* \"#utility.yul\":8640:8782   */\n    tag_80:\n        /* \"#utility.yul\":8690:8699   */\n      0x00\n        /* \"#utility.yul\":8723:8776   */\n      tag_189\n        /* \"#utility.yul\":8741:8775   */\n      tag_190\n        /* \"#utility.yul\":8750:8774   */\n      tag_191\n        /* \"#utility.yul\":8768:8773   */\n      dup5\n        /* \"#utility.yul\":8750:8774   */\n      tag_58\n      jump\t// in\n    tag_191:\n        /* \"#utility.yul\":8741:8775   */\n      tag_79\n      jump\t// in\n    tag_190:\n        /* \"#utility.yul\":8723:8776   */\n      tag_58\n      jump\t// in\n    tag_189:\n        /* \"#utility.yul\":8710:8776   */\n      swap1\n      pop\n        /* \"#utility.yul\":8640:8782   */\n      swap2\n      swap1\n      pop\n      jump\t// out\n        /* \"#utility.yul\":8788:8863   */\n    tag_81:\n        /* \"#utility.yul\":8831:8834   */\n      0x00\n        /* \"#utility.yul\":8852:8857   */\n      dup2\n        /* \"#utility.yul\":8845:8857   */\n      swap1\n      pop\n        /* \"#utility.yul\":8788:8863   */\n      swap2\n      swap1\n      pop\n      jump\t// out\n        /* \"#utility.yul\":8869:9138   */\n    tag_82:\n        /* \"#utility.yul\":8979:9018   */\n      tag_194\n        /* \"#utility.yul\":9010:9017   */\n      dup4\n        /* \"#utility.yul\":8979:9018   */\n      tag_80\n      jump\t// in\n    tag_194:\n        /* \"#utility.yul\":9040:9131   */\n      tag_195\n        /* \"#utility.yul\":9089:9130   */\n      tag_196\n        /* \"#utility.yul\":9113:9129   */\n      dup3\n        /* \"#utility.yul\":9089:9130   */\n      tag_81\n      jump\t// in\n    tag_196:\n        /* \"#utility.yul\":9081:9087   */\n      dup5\n        /* \"#utility.yul\":9074:9078   */\n      dup5\n        /* \"#utility.yul\":9068:9079   */\n      sload\n        /* \"#utility.yul\":9040:9131   */\n      tag_78\n      jump\t// in\n    tag_195:\n        /* \"#utility.yul\":9034:9038   */\n      dup3\n        /* \"#utility.yul\":9027:9132   */\n      sstore\n        /* \"#utility.yul\":8945:9138   */\n      pop\n        /* \"#utility.yul\":8869:9138   */\n      pop\n      pop\n      pop\n      jump\t// out\n        /* \"#utility.yul\":9144:9217   */\n    tag_83:\n        /* \"#utility.yul\":9189:9192   */\n      0x00\n        /* \"#utility.yul\":9144:9217   */\n      swap1\n      jump\t// out\n        /* \"#utility.yul\":9223:9412   */\n    tag_84:\n        /* \"#utility.yul\":9300:9332   */\n      tag_199\n      tag_83\n      jump\t// in\n    tag_199:\n        /* \"#utility.yul\":9341:9406   */\n      tag_200\n        /* \"#utility.yul\":9399:9405   */\n      dup2\n        /* \"#utility.yul\":9391:9397   */\n      dup5\n        /* \"#utility.yul\":9385:9389   */\n      dup5\n        /* \"#utility.yul\":9341:9406   */\n      tag_82\n      jump\t// in\n    tag_200:\n        /* \"#utility.yul\":9276:9412   */\n      pop\n        /* \"#utility.yul\":9223:9412   */\n      pop\n      pop\n      jump\t// out\n        /* \"#utility.yul\":9418:9604   */\n    tag_85:\n        /* \"#utility.yul\":9478:9598   */\n    tag_202:\n        /* \"#utility.yul\":9495:9498   */\n      dup2\n        /* \"#utility.yul\":9488:9493   */\n      dup2\n        /* \"#utility.yul\":9485:9499   */\n      lt\n        /* \"#utility.yul\":9478:9598   */\n      iszero\n      tag_204\n      jumpi\n        /* \"#utility.yul\":9549:9588   */\n      tag_205\n        /* \"#utility.yul\":9586:9587   */\n      0x00\n        /* \"#utility.yul\":9579:9584   */\n      dup3\n        /* \"#utility.yul\":9549:9588   */\n      tag_84\n      jump\t// in\n    tag_205:\n        /* \"#utility.yul\":9522:9523   */\n      0x01\n        /* \"#utility.yul\":9515:9520   */\n      dup2\n        /* \"#utility.yul\":9511:9524   */\n      add\n        /* \"#utility.yul\":9502:9524   */\n      swap1\n      pop\n        /* \"#utility.yul\":9478:9598   */\n      jump(tag_202)\n    tag_204:\n        /* \"#utility.yul\":9418:9604   */\n      pop\n      pop\n      jump\t// out\n        /* \"#utility.yul\":9610:10153   */\n    tag_86:\n        /* \"#utility.yul\":9711:9713   */\n      0x1f\n        /* \"#utility.yul\":9706:9709   */\n      dup3\n        /* \"#utility.yul\":9703:9714   */\n      gt\n        /* \"#utility.yul\":9700:10146   */\n      iszero\n      tag_207\n      jumpi\n        /* \"#utility.yul\":9745:9783   */\n      tag_208\n        /* \"#utility.yul\":9777:9782   */\n      dup2\n        /* \"#utility.yul\":9745:9783   */\n      tag_75\n      jump\t// in\n    tag_208:\n        /* \"#utility.yul\":9829:9858   */\n      tag_209\n        /* \"#utility.yul\":9847:9857   */\n      dup5\n        /* \"#utility.yul\":9829:9858   */\n      tag_76\n      jump\t// in\n    tag_209:\n        /* \"#utility.yul\":9819:9827   */\n      dup2\n        /* \"#utility.yul\":9815:9859   */\n      add\n        /* \"#utility.yul\":10012:10014   */\n      0x20\n        /* \"#utility.yul\":10000:10010   */\n      dup6\n        /* \"#utility.yul\":9997:10015   */\n      lt\n        /* \"#utility.yul\":9994:10043   */\n      iszero\n      tag_210\n      jumpi\n        /* \"#utility.yul\":10033:10041   */\n      dup2\n        /* \"#utility.yul\":10018:10041   */\n      swap1\n      pop\n        /* \"#utility.yul\":9994:10043   */\n    tag_210:\n        /* \"#utility.yul\":10056:10136   */\n      tag_211\n        /* \"#utility.yul\":10112:10134   */\n      tag_212\n        /* \"#utility.yul\":10130:10133   */\n      dup6\n        /* \"#utility.yul\":10112:10134   */\n      tag_76\n      jump\t// in\n    tag_212:\n        /* \"#utility.yul\":10102:10110   */\n      dup4\n        /* \"#utility.yul\":10098:10135   */\n      add\n        /* \"#utility.yul\":10085:10096   */\n      dup3\n        /* \"#utility.yul\":10056:10136   */\n      tag_85\n      jump\t// in\n    tag_211:\n        /* \"#utility.yul\":9715:10146   */\n      pop\n      pop\n        /* \"#utility.yul\":9700:10146   */\n    tag_207:\n        /* \"#utility.yul\":9610:10153   */\n      pop\n      pop\n      pop\n      jump\t// out\n        /* \"#utility.yul\":10159:10276   */\n    tag_87:\n        /* \"#utility.yul\":10213:10221   */\n      0x00\n        /* \"#utility.yul\":10263:10268   */\n      dup3\n        /* \"#utility.yul\":10257:10261   */\n      dup3\n        /* \"#utility.yul\":10253:10269   */\n      shr\n        /* \"#utility.yul\":10232:10269   */\n      swap1\n      pop\n        /* \"#utility.yul\":10159:10276   */\n      swap3\n      swap2\n      pop\n      pop\n      jump\t// out\n        /* \"#utility.yul\":10282:10451   */\n    tag_88:\n        /* \"#utility.yul\":10326:10332   */\n      0x00\n        /* \"#utility.yul\":10359:10410   */\n      tag_215\n        /* \"#utility.yul\":10407:10408   */\n      0x00\n        /* \"#utility.yul\":10403:10409   */\n      not\n        /* \"#utility.yul\":10395:10400   */\n      dup5\n        /* \"#utility.yul\":10392:10393   */\n      0x08\n        /* \"#utility.yul\":10388:10401   */\n      mul\n        /* \"#utility.yul\":10359:10410   */\n      tag_87\n      jump\t// in\n    tag_215:\n        /* \"#utility.yul\":10355:10411   */\n      not\n        /* \"#utility.yul\":10440:10444   */\n      dup1\n        /* \"#utility.yul\":10434:10438   */\n      dup4\n        /* \"#utility.yul\":10430:10445   */\n      and\n        /* \"#utility.yul\":10420:10445   */\n      swap2\n      pop\n        /* \"#utility.yul\":10333:10451   */\n      pop\n        /* \"#utility.yul\":10282:10451   */\n      swap3\n      swap2\n      pop\n      pop\n      jump\t// out\n        /* \"#utility.yul\":10456:10751   */\n    tag_89:\n        /* \"#utility.yul\":10532:10536   */\n      0x00\n        /* \"#utility.yul\":10678:10707   */\n      tag_217\n        /* \"#utility.yul\":10703:10706   */\n      dup4\n        /* \"#utility.yul\":10697:10701   */\n      dup4\n        /* \"#utility.yul\":10678:10707   */\n      tag_88\n      jump\t// in\n    tag_217:\n        /* \"#utility.yul\":10670:10707   */\n      swap2\n      pop\n        /* \"#utility.yul\":10740:10743   */\n      dup3\n        /* \"#utility.yul\":10737:10738   */\n      0x02\n        /* \"#utility.yul\":10733:10744   */\n      mul\n        /* \"#utility.yul\":10727:10731   */\n      dup3\n        /* \"#utility.yul\":10724:10745   */\n      or\n        /* \"#utility.yul\":10716:10745   */\n      swap1\n      pop\n        /* \"#utility.yul\":10456:10751   */\n      swap3\n      swap2\n      pop\n      pop\n      jump\t// out\n        /* \"#utility.yul\":10756:12151   */\n    tag_44:\n        /* \"#utility.yul\":10873:10910   */\n      tag_219\n        /* \"#utility.yul\":10906:10909   */\n      dup3\n        /* \"#utility.yul\":10873:10910   */\n      tag_53\n      jump\t// in\n    tag_219:\n        /* \"#utility.yul\":10975:10993   */\n      0xffffffffffffffff\n        /* \"#utility.yul\":10967:10973   */\n      dup2\n        /* \"#utility.yul\":10964:10994   */\n      gt\n        /* \"#utility.yul\":10961:11017   */\n      iszero\n      tag_220\n      jumpi\n        /* \"#utility.yul\":10997:11015   */\n      tag_221\n      tag_67\n      jump\t// in\n    tag_221:\n        /* \"#utility.yul\":10961:11017   */\n    tag_220:\n        /* \"#utility.yul\":11041:11079   */\n      tag_222\n        /* \"#utility.yul\":11073:11077   */\n      dup3\n        /* \"#utility.yul\":11067:11078   */\n      sload\n        /* \"#utility.yul\":11041:11079   */\n      tag_30\n      jump\t// in\n    tag_222:\n        /* \"#utility.yul\":11126:11193   */\n      tag_223\n        /* \"#utility.yul\":11186:11192   */\n      dup3\n        /* \"#utility.yul\":11178:11184   */\n      dup3\n        /* \"#utility.yul\":11172:11176   */\n      dup6\n        /* \"#utility.yul\":11126:11193   */\n      tag_86\n      jump\t// in\n    tag_223:\n        /* \"#utility.yul\":11220:11221   */\n      0x00\n        /* \"#utility.yul\":11244:11248   */\n      0x20\n        /* \"#utility.yul\":11231:11248   */\n      swap1\n      pop\n        /* \"#utility.yul\":11276:11278   */\n      0x1f\n        /* \"#utility.yul\":11268:11274   */\n      dup4\n        /* \"#utility.yul\":11265:11279   */\n      gt\n        /* \"#utility.yul\":11293:11294   */\n      0x01\n        /* \"#utility.yul\":11288:11906   */\n      dup2\n      eq\n      tag_225\n      jumpi\n        /* \"#utility.yul\":11950:11951   */\n      0x00\n        /* \"#utility.yul\":11967:11973   */\n      dup5\n        /* \"#utility.yul\":11964:12041   */\n      iszero\n      tag_226\n      jumpi\n        /* \"#utility.yul\":12016:12025   */\n      dup3\n        /* \"#utility.yul\":12011:12014   */\n      dup8\n        /* \"#utility.yul\":12007:12026   */\n      add\n        /* \"#utility.yul\":12001:12027   */\n      mload\n        /* \"#utility.yul\":11992:12027   */\n      swap1\n      pop\n        /* \"#utility.yul\":11964:12041   */\n    tag_226:\n        /* \"#utility.yul\":12067:12134   */\n      tag_227\n        /* \"#utility.yul\":12127:12133   */\n      dup6\n        /* \"#utility.yul\":12120:12125   */\n      dup3\n        /* \"#utility.yul\":12067:12134   */\n      tag_89\n      jump\t// in\n    tag_227:\n        /* \"#utility.yul\":12061:12065   */\n      dup7\n        /* \"#utility.yul\":12054:12135   */\n      sstore\n        /* \"#utility.yul\":11923:12145   */\n      pop\n        /* \"#utility.yul\":11258:12145   */\n      jump(tag_224)\n        /* \"#utility.yul\":11288:11906   */\n    tag_225:\n        /* \"#utility.yul\":11340:11344   */\n      0x1f\n        /* \"#utility.yul\":11336:11345   */\n      not\n        /* \"#utility.yul\":11328:11334   */\n      dup5\n        /* \"#utility.yul\":11324:11346   */\n      and\n        /* \"#utility.yul\":11374:11411   */\n      tag_228\n        /* \"#utility.yul\":11406:11410   */\n      dup7\n        /* \"#utility.yul\":11374:11411   */\n      tag_75\n      jump\t// in\n    tag_228:\n        /* \"#utility.yul\":11433:11434   */\n      0x00\n        /* \"#utility.yul\":11447:11655   */\n    tag_229:\n        /* \"#utility.yul\":11461:11468   */\n      dup3\n        /* \"#utility.yul\":11458:11459   */\n      dup2\n        /* \"#utility.yul\":11455:11469   */\n      lt\n        /* \"#utility.yul\":11447:11655   */\n      iszero\n      tag_231\n      jumpi\n        /* \"#utility.yul\":11540:11549   */\n      dup5\n        /* \"#utility.yul\":11535:11538   */\n      dup10\n        /* \"#utility.yul\":11531:11550   */\n      add\n        /* \"#utility.yul\":11525:11551   */\n      mload\n        /* \"#utility.yul\":11517:11523   */\n      dup3\n        /* \"#utility.yul\":11510:11552   */\n      sstore\n        /* \"#utility.yul\":11591:11592   */\n      0x01\n        /* \"#utility.yul\":11583:11589   */\n      dup3\n        /* \"#utility.yul\":11579:11593   */\n      add\n        /* \"#utility.yul\":11569:11593   */\n      swap2\n      pop\n        /* \"#utility.yul\":11638:11640   */\n      0x20\n        /* \"#utility.yul\":11627:11636   */\n      dup6\n        /* \"#utility.yul\":11623:11641   */\n      add\n        /* \"#utility.yul\":11610:11641   */\n      swap5\n      pop\n        /* \"#utility.yul\":11484:11488   */\n      0x20\n        /* \"#utility.yul\":11481:11482   */\n      dup2\n        /* \"#utility.yul\":11477:11489   */\n      add\n        /* \"#utility.yul\":11472:11489   */\n      swap1\n      pop\n        /* \"#utility.yul\":11447:11655   */\n      jump(tag_229)\n    tag_231:\n        /* \"#utility.yul\":11683:11689   */\n      dup7\n        /* \"#utility.yul\":11674:11681   */\n      dup4\n        /* \"#utility.yul\":11671:11690   */\n      lt\n        /* \"#utility.yul\":11668:11847   */\n      iszero\n      tag_232\n      jumpi\n        /* \"#utility.yul\":11741:11750   */\n      dup5\n        /* \"#utility.yul\":11736:11739   */\n      dup10\n        /* \"#utility.yul\":11732:11751   */\n      add\n        /* \"#utility.yul\":11726:11752   */\n      mload\n        /* \"#utility.yul\":11784:11832   */\n      tag_233\n        /* \"#utility.yul\":11826:11830   */\n      0x1f\n        /* \"#utility.yul\":11818:11824   */\n      dup10\n        /* \"#utility.yul\":11814:11831   */\n      and\n        /* \"#utility.yul\":11803:11812   */\n      dup3\n        /* \"#utility.yul\":11784:11832   */\n      tag_88\n      jump\t// in\n    tag_233:\n        /* \"#utility.yul\":11776:11782   */\n      dup4\n        /* \"#utility.yul\":11769:11833   */\n      sstore\n        /* \"#utility.yul\":11691:11847   */\n      pop\n        /* \"#utility.yul\":11668:11847   */\n    tag_232:\n        /* \"#utility.yul\":11893:11894   */\n      0x01\n        /* \"#utility.yul\":11889:11890   */\n      0x02\n        /* \"#utility.yul\":11881:11887   */\n      dup9\n        /* \"#utility.yul\":11877:11891   */\n      mul\n        /* \"#utility.yul\":11873:11895   */\n      add\n        /* \"#utility.yul\":11867:11871   */\n      dup9\n        /* \"#utility.yul\":11860:11896   */\n      sstore\n        /* \"#utility.yul\":11295:11906   */\n      pop\n      pop\n      pop\n        /* \"#utility.yul\":11258:12145   */\n    tag_224:\n      pop\n        /* \"#utility.yul\":10848:12151   */\n      pop\n      pop\n      pop\n        /* \"#utility.yul\":10756:12151   */\n      pop\n      pop\n      jump\t// out\n\n    auxdata: 0xa26469706673582212208e426868ddc08dd587442af8c189b5484146dbc4474a9227632bc998487e394764736f6c63430008130033\n}\n",
				"bytecode": {
					"linkReferences": {},
					"object": "608060405234801561001057600080fd5b50610b18806100206000396000f3fe608060405234801561001057600080fd5b506004361061004c5760003560e01c806371ad722114610051578063a87430ba14610082578063b0ce739d146100b4578063ea87152b146100e4575b600080fd5b61006b60048036038101906100669190610491565b610100565b604051610079929190610567565b60405180910390f35b61009c60048036038101906100979190610491565b61021b565b6040516100ab939291906105b2565b60405180910390f35b6100ce60048036038101906100c9919061061c565b6102da565b6040516100db9190610658565b60405180910390f35b6100fe60048036038101906100f991906107a8565b610319565b005b60606000806000808573ffffffffffffffffffffffffffffffffffffffff1673ffffffffffffffffffffffffffffffffffffffff16815260200190815260200160002060405180606001604052908160008201805461015e90610833565b80601f016020809104026020016040519081016040528092919081815260200182805461018a90610833565b80156101d75780601f106101ac576101008083540402835291602001916101d7565b820191906000526020600020905b8154815290600101906020018083116101ba57829003601f168201915b50505050508152602001600182015481526020016002820160009054906101000a900460ff1615151515815250509050806000015181602001519250925050915091565b600060205280600052604060002060009150905080600001805461023e90610833565b80601f016020809104026020016040519081016040528092919081815260200182805461026a90610833565b80156102b75780601f1061028c576101008083540402835291602001916102b7565b820191906000526020600020905b81548152906001019060200180831161029a57829003601f168201915b5050505050908060010154908060020160009054906101000a900460ff16905083565b600181815481106102ea57600080fd5b906000526020600020016000915054906101000a900473ffffffffffffffffffffffffffffffffffffffff1681565b6040518060600160405280838152602001828152602001600115158152506000803373ffffffffffffffffffffffffffffffffffffffff1673ffffffffffffffffffffffffffffffffffffffff168152602001908152602001600020600082015181600001908161038a9190610a10565b506020820151816001015560408201518160020160006101000a81548160ff0219169083151502179055509050506001339080600181540180825580915050600190039060005260206000200160009091909190916101000a81548173ffffffffffffffffffffffffffffffffffffffff021916908373ffffffffffffffffffffffffffffffffffffffff1602179055505050565b6000604051905090565b600080fd5b600080fd5b600073ffffffffffffffffffffffffffffffffffffffff82169050919050565b600061045e82610433565b9050919050565b61046e81610453565b811461047957600080fd5b50565b60008135905061048b81610465565b92915050565b6000602082840312156104a7576104a6610429565b5b60006104b58482850161047c565b91505092915050565b600081519050919050565b600082825260208201905092915050565b60005b838110156104f85780820151818401526020810190506104dd565b60008484015250505050565b6000601f19601f8301169050919050565b6000610520826104be565b61052a81856104c9565b935061053a8185602086016104da565b61054381610504565b840191505092915050565b6000819050919050565b6105618161054e565b82525050565b600060408201905081810360008301526105818185610515565b90506105906020830184610558565b9392505050565b60008115159050919050565b6105ac81610597565b82525050565b600060608201905081810360008301526105cc8186610515565b90506105db6020830185610558565b6105e860408301846105a3565b949350505050565b6105f98161054e565b811461060457600080fd5b50565b600081359050610616816105f0565b92915050565b60006020828403121561063257610631610429565b5b600061064084828501610607565b91505092915050565b61065281610453565b82525050565b600060208201905061066d6000830184610649565b92915050565b600080fd5b600080fd5b7f4e487b7100000000000000000000000000000000000000000000000000000000600052604160045260246000fd5b6106b582610504565b810181811067ffffffffffffffff821117156106d4576106d361067d565b5b80604052505050565b60006106e761041f565b90506106f382826106ac565b919050565b600067ffffffffffffffff8211156107135761071261067d565b5b61071c82610504565b9050602081019050919050565b82818337600083830152505050565b600061074b610746846106f8565b6106dd565b90508281526020810184848401111561076757610766610678565b5b610772848285610729565b509392505050565b600082601f83011261078f5761078e610673565b5b813561079f848260208601610738565b91505092915050565b600080604083850312156107bf576107be610429565b5b600083013567ffffffffffffffff8111156107dd576107dc61042e565b5b6107e98582860161077a565b92505060206107fa85828601610607565b9150509250929050565b7f4e487b7100000000000000000000000000000000000000000000000000000000600052602260045260246000fd5b6000600282049050600182168061084b57607f821691505b60208210810361085e5761085d610804565b5b50919050565b60008190508160005260206000209050919050565b60006020601f8301049050919050565b600082821b905092915050565b6000600883026108c67fffffffffffffffffffffffffffffffffffffffffffffffffffffffffffffffff82610889565b6108d08683610889565b95508019841693508086168417925050509392505050565b6000819050919050565b600061090d6109086109038461054e565b6108e8565b61054e565b9050919050565b6000819050919050565b610927836108f2565b61093b61093382610914565b848454610896565b825550505050565b600090565b610950610943565b61095b81848461091e565b505050565b5b8181101561097f57610974600082610948565b600181019050610961565b5050565b601f8211156109c45761099581610864565b61099e84610879565b810160208510156109ad578190505b6109c16109b985610879565b830182610960565b50505b505050565b600082821c905092915050565b60006109e7600019846008026109c9565b1980831691505092915050565b6000610a0083836109d6565b9150826002028217905092915050565b610a19826104be565b67ffffffffffffffff811115610a3257610a3161067d565b5b610a3c8254610833565b610a47828285610983565b600060209050601f831160018114610a7a5760008415610a68578287015190505b610a7285826109f4565b865550610ada565b601f198416610a8886610864565b60005b82811015610ab057848901518255600182019150602085019450602081019050610a8b565b86831015610acd5784890151610ac9601f8916826109d6565b8355505b6001600288020188555050505b50505050505056fea26469706673582212208e426868ddc08dd587442af8c189b5484146dbc4474a9227632bc998487e394764736f6c63430008130033",
					"opcodes": "PUSH1 0x80 PUSH1 0x40 MSTORE CALLVALUE DUP1 ISZERO PUSH2 0x10 JUMPI PUSH1 0x0 DUP1 REVERT JUMPDEST POP PUSH2 0xB18 DUP1 PUSH2 0x20 PUSH1 0x0 CODECOPY PUSH1 0x0 RETURN INVALID PUSH1 0x80 PUSH1 0x40 MSTORE CALLVALUE DUP1 ISZERO PUSH2 0x10 JUMPI PUSH1 0x0 DUP1 REVERT JUMPDEST POP PUSH1 0x4 CALLDATASIZE LT PUSH2 0x4C JUMPI PUSH1 0x0 CALLDATALOAD PUSH1 0xE0 SHR DUP1 PUSH4 0x71AD7221 EQ PUSH2 0x51 JUMPI DUP1 PUSH4 0xA87430BA EQ PUSH2 0x82 JUMPI DUP1 PUSH4 0xB0CE739D EQ PUSH2 0xB4 JUMPI DUP1 PUSH4 0xEA87152B EQ PUSH2 0xE4 JUMPI JUMPDEST PUSH1 0x0 DUP1 REVERT JUMPDEST PUSH2 0x6B PUSH1 0x4 DUP1 CALLDATASIZE SUB DUP2 ADD SWAP1 PUSH2 0x66 SWAP2 SWAP1 PUSH2 0x491 JUMP JUMPDEST PUSH2 0x100 JUMP JUMPDEST PUSH1 0x40 MLOAD PUSH2 0x79 SWAP3 SWAP2 SWAP1 PUSH2 0x567 JUMP JUMPDEST PUSH1 0x40 MLOAD DUP1 SWAP2 SUB SWAP1 RETURN JUMPDEST PUSH2 0x9C PUSH1 0x4 DUP1 CALLDATASIZE SUB DUP2 ADD SWAP1 PUSH2 0x97 SWAP2 SWAP1 PUSH2 0x491 JUMP JUMPDEST PUSH2 0x21B JUMP JUMPDEST PUSH1 0x40 MLOAD PUSH2 0xAB SWAP4 SWAP3 SWAP2 SWAP1 PUSH2 0x5B2 JUMP JUMPDEST PUSH1 0x40 MLOAD DUP1 SWAP2 SUB SWAP1 RETURN JUMPDEST PUSH2 0xCE PUSH1 0x4 DUP1 CALLDATASIZE SUB DUP2 ADD SWAP1 PUSH2 0xC9 SWAP2 SWAP1 PUSH2 0x61C JUMP JUMPDEST PUSH2 0x2DA JUMP JUMPDEST PUSH1 0x40 MLOAD PUSH2 0xDB SWAP2 SWAP1 PUSH2 0x658 JUMP JUMPDEST PUSH1 0x40 MLOAD DUP1 SWAP2 SUB SWAP1 RETURN JUMPDEST PUSH2 0xFE PUSH1 0x4 DUP1 CALLDATASIZE SUB DUP2 ADD SWAP1 PUSH2 0xF9 SWAP2 SWAP1 PUSH2 0x7A8 JUMP JUMPDEST PUSH2 0x319 JUMP JUMPDEST STOP JUMPDEST PUSH1 0x60 PUSH1 0x0 DUP1 PUSH1 0x0 DUP1 DUP6 PUSH20 0xFFFFFFFFFFFFFFFFFFFFFFFFFFFFFFFFFFFFFFFF AND PUSH20 0xFFFFFFFFFFFFFFFFFFFFFFFFFFFFFFFFFFFFFFFF AND DUP2 MSTORE PUSH1 0x20 ADD SWAP1 DUP2 MSTORE PUSH1 0x20 ADD PUSH1 0x0 KECCAK256 PUSH1 0x40 MLOAD DUP1 PUSH1 0x60 ADD PUSH1 0x40 MSTORE SWAP1 DUP2 PUSH1 0x0 DUP3 ADD DUP1 SLOAD PUSH2 0x15E SWAP1 PUSH2 0x833 JUMP JUMPDEST DUP1 PUSH1 0x1F ADD PUSH1 0x20 DUP1 SWAP2 DIV MUL PUSH1 0x20 ADD PUSH1 0x40 MLOAD SWAP1 DUP2 ADD PUSH1 0x40 MSTORE DUP1 SWAP3 SWAP2 SWAP1 DUP2 DUP2 MSTORE PUSH1 0x20 ADD DUP3 DUP1 SLOAD PUSH2 0x18A SWAP1 PUSH2 0x833 JUMP JUMPDEST DUP1 ISZERO PUSH2 0x1D7 JUMPI DUP1 PUSH1 0x1F LT PUSH2 0x1AC JUMPI PUSH2 0x100 DUP1 DUP4 SLOAD DIV MUL DUP4 MSTORE SWAP2 PUSH1 0x20 ADD SWAP2 PUSH2 0x1D7 JUMP JUMPDEST DUP3 ADD SWAP2 SWAP1 PUSH1 0x0 MSTORE PUSH1 0x20 PUSH1 0x0 KECCAK256 SWAP1 JUMPDEST DUP2 SLOAD DUP2 MSTORE SWAP1 PUSH1 0x1 ADD SWAP1 PUSH1 0x20 ADD DUP1 DUP4 GT PUSH2 0x1BA JUMPI DUP3 SWAP1 SUB PUSH1 0x1F AND DUP3 ADD SWAP2 JUMPDEST POP POP POP POP POP DUP2 MSTORE PUSH1 0x20 ADD PUSH1 0x1 DUP3 ADD SLOAD DUP2 MSTORE PUSH1 0x20 ADD PUSH1 0x2 DUP3 ADD PUSH1 0x0 SWAP1 SLOAD SWAP1 PUSH2 0x100 EXP SWAP1 DIV PUSH1 0xFF AND ISZERO ISZERO ISZERO ISZERO DUP2 MSTORE POP POP SWAP1 POP DUP1 PUSH1 0x0 ADD MLOAD DUP2 PUSH1 0x20 ADD MLOAD SWAP3 POP SWAP3 POP POP SWAP2 POP SWAP2 JUMP JUMPDEST PUSH1 0x0 PUSH1 0x20 MSTORE DUP1 PUSH1 0x0 MSTORE PUSH1 0x40 PUSH1 0x0 KECCAK256 PUSH1 0x0 SWAP2 POP SWAP1 POP DUP1 PUSH1 0x0 ADD DUP1 SLOAD PUSH2 0x23E SWAP1 PUSH2 0x833 JUMP JUMPDEST DUP1 PUSH1 0x1F ADD PUSH1 0x20 DUP1 SWAP2 DIV MUL PUSH1 0x20 ADD PUSH1 0x40 MLOAD SWAP1 DUP2 ADD PUSH1 0x40 MSTORE DUP1 SWAP3 SWAP2 SWAP1 DUP2 DUP2 MSTORE PUSH1 0x20 ADD DUP3 DUP1 SLOAD PUSH2 0x26A SWAP1 PUSH2 0x833 JUMP JUMPDEST DUP1 ISZERO PUSH2 0x2B7 JUMPI DUP1 PUSH1 0x1F LT PUSH2 0x28C JUMPI PUSH2 0x100 DUP1 DUP4 SLOAD DIV MUL DUP4 MSTORE SWAP2 PUSH1 0x20 ADD SWAP2 PUSH2 0x2B7 JUMP JUMPDEST DUP3 ADD SWAP2 SWAP1 PUSH1 0x0 MSTORE PUSH1 0x20 PUSH1 0x0 KECCAK256 SWAP1 JUMPDEST DUP2 SLOAD DUP2 MSTORE SWAP1 PUSH1 0x1 ADD SWAP1 PUSH1 0x20 ADD DUP1 DUP4 GT PUSH2 0x29A JUMPI DUP3 SWAP1 SUB PUSH1 0x1F AND DUP3 ADD SWAP2 JUMPDEST POP POP POP POP POP SWAP1 DUP1 PUSH1 0x1 ADD SLOAD SWAP1 DUP1 PUSH1 0x2 ADD PUSH1 0x0 SWAP1 SLOAD SWAP1 PUSH2 0x100 EXP SWAP1 DIV PUSH1 0xFF AND SWAP1 POP DUP4 JUMP JUMPDEST PUSH1 0x1 DUP2 DUP2 SLOAD DUP2 LT PUSH2 0x2EA JUMPI PUSH1 0x0 DUP1 REVERT JUMPDEST SWAP1 PUSH1 0x0 MSTORE PUSH1 0x20 PUSH1 0x0 KECCAK256 ADD PUSH1 0x0 SWAP2 POP SLOAD SWAP1 PUSH2 0x100 EXP SWAP1 DIV PUSH20 0xFFFFFFFFFFFFFFFFFFFFFFFFFFFFFFFFFFFFFFFF AND DUP2 JUMP JUMPDEST PUSH1 0x40 MLOAD DUP1 PUSH1 0x60 ADD PUSH1 0x40 MSTORE DUP1 DUP4 DUP2 MSTORE PUSH1 0x20 ADD DUP3 DUP2 MSTORE PUSH1 0x20 ADD PUSH1 0x1 ISZERO ISZERO DUP2 MSTORE POP PUSH1 0x0 DUP1 CALLER PUSH20 0xFFFFFFFFFFFFFFFFFFFFFFFFFFFFFFFFFFFFFFFF AND PUSH20 0xFFFFFFFFFFFFFFFFFFFFFFFFFFFFFFFFFFFFFFFF AND DUP2 MSTORE PUSH1 0x20 ADD SWAP1 DUP2 MSTORE PUSH1 0x20 ADD PUSH1 0x0 KECCAK256 PUSH1 0x0 DUP3 ADD MLOAD DUP2 PUSH1 0x0 ADD SWAP1 DUP2 PUSH2 0x38A SWAP2 SWAP1 PUSH2 0xA10 JUMP JUMPDEST POP PUSH1 0x20 DUP3 ADD MLOAD DUP2 PUSH1 0x1 ADD SSTORE PUSH1 0x40 DUP3 ADD MLOAD DUP2 PUSH1 0x2 ADD PUSH1 0x0 PUSH2 0x100 EXP DUP2 SLOAD DUP2 PUSH1 0xFF MUL NOT AND SWAP1 DUP4 ISZERO ISZERO MUL OR SWAP1 SSTORE POP SWAP1 POP POP PUSH1 0x1 CALLER SWAP1 DUP1 PUSH1 0x1 DUP2 SLOAD ADD DUP1 DUP3 SSTORE DUP1 SWAP2 POP POP PUSH1 0x1 SWAP1 SUB SWAP1 PUSH1 0x0 MSTORE PUSH1 0x20 PUSH1 0x0 KECCAK256 ADD PUSH1 0x0 SWAP1 SWAP2 SWAP1 SWAP2 SWAP1 SWAP2 PUSH2 0x100 EXP DUP2 SLOAD DUP2 PUSH20 0xFFFFFFFFFFFFFFFFFFFFFFFFFFFFFFFFFFFFFFFF MUL NOT AND SWAP1 DUP4 PUSH20 0xFFFFFFFFFFFFFFFFFFFFFFFFFFFFFFFFFFFFFFFF AND MUL OR SWAP1 SSTORE POP POP POP JUMP JUMPDEST PUSH1 0x0 PUSH1 0x40 MLOAD SWAP1 POP SWAP1 JUMP JUMPDEST PUSH1 0x0 DUP1 REVERT JUMPDEST PUSH1 0x0 DUP1 REVERT JUMPDEST PUSH1 0x0 PUSH20 0xFFFFFFFFFFFFFFFFFFFFFFFFFFFFFFFFFFFFFFFF DUP3 AND SWAP1 POP SWAP2 SWAP1 POP JUMP JUMPDEST PUSH1 0x0 PUSH2 0x45E DUP3 PUSH2 0x433 JUMP JUMPDEST SWAP1 POP SWAP2 SWAP1 POP JUMP JUMPDEST PUSH2 0x46E DUP2 PUSH2 0x453 JUMP JUMPDEST DUP2 EQ PUSH2 0x479 JUMPI PUSH1 0x0 DUP1 REVERT JUMPDEST POP JUMP JUMPDEST PUSH1 0x0 DUP2 CALLDATALOAD SWAP1 POP PUSH2 0x48B DUP2 PUSH2 0x465 JUMP JUMPDEST SWAP3 SWAP2 POP POP JUMP JUMPDEST PUSH1 0x0 PUSH1 0x20 DUP3 DUP5 SUB SLT ISZERO PUSH2 0x4A7 JUMPI PUSH2 0x4A6 PUSH2 0x429 JUMP JUMPDEST JUMPDEST PUSH1 0x0 PUSH2 0x4B5 DUP5 DUP3 DUP6 ADD PUSH2 0x47C JUMP JUMPDEST SWAP2 POP POP SWAP3 SWAP2 POP POP JUMP JUMPDEST PUSH1 0x0 DUP2 MLOAD SWAP1 POP SWAP2 SWAP1 POP JUMP JUMPDEST PUSH1 0x0 DUP3 DUP3 MSTORE PUSH1 0x20 DUP3 ADD SWAP1 POP SWAP3 SWAP2 POP POP JUMP JUMPDEST PUSH1 0x0 JUMPDEST DUP4 DUP2 LT ISZERO PUSH2 0x4F8 JUMPI DUP1 DUP3 ADD MLOAD DUP2 DUP5 ADD MSTORE PUSH1 0x20 DUP2 ADD SWAP1 POP PUSH2 0x4DD JUMP JUMPDEST PUSH1 0x0 DUP5 DUP5 ADD MSTORE POP POP POP POP JUMP JUMPDEST PUSH1 0x0 PUSH1 0x1F NOT PUSH1 0x1F DUP4 ADD AND SWAP1 POP SWAP2 SWAP1 POP JUMP JUMPDEST PUSH1 0x0 PUSH2 0x520 DUP3 PUSH2 0x4BE JUMP JUMPDEST PUSH2 0x52A DUP2 DUP6 PUSH2 0x4C9 JUMP JUMPDEST SWAP4 POP PUSH2 0x53A DUP2 DUP6 PUSH1 0x20 DUP7 ADD PUSH2 0x4DA JUMP JUMPDEST PUSH2 0x543 DUP2 PUSH2 0x504 JUMP JUMPDEST DUP5 ADD SWAP2 POP POP SWAP3 SWAP2 POP POP JUMP JUMPDEST PUSH1 0x0 DUP2 SWAP1 POP SWAP2 SWAP1 POP JUMP JUMPDEST PUSH2 0x561 DUP2 PUSH2 0x54E JUMP JUMPDEST DUP3 MSTORE POP POP JUMP JUMPDEST PUSH1 0x0 PUSH1 0x40 DUP3 ADD SWAP1 POP DUP2 DUP2 SUB PUSH1 0x0 DUP4 ADD MSTORE PUSH2 0x581 DUP2 DUP6 PUSH2 0x515 JUMP JUMPDEST SWAP1 POP PUSH2 0x590 PUSH1 0x20 DUP4 ADD DUP5 PUSH2 0x558 JUMP JUMPDEST SWAP4 SWAP3 POP POP POP JUMP JUMPDEST PUSH1 0x0 DUP2 ISZERO ISZERO SWAP1 POP SWAP2 SWAP1 POP JUMP JUMPDEST PUSH2 0x5AC DUP2 PUSH2 0x597 JUMP JUMPDEST DUP3 MSTORE POP POP JUMP JUMPDEST PUSH1 0x0 PUSH1 0x60 DUP3 ADD SWAP1 POP DUP2 DUP2 SUB PUSH1 0x0 DUP4 ADD MSTORE PUSH2 0x5CC DUP2 DUP7 PUSH2 0x515 JUMP JUMPDEST SWAP1 POP PUSH2 0x5DB PUSH1 0x20 DUP4 ADD DUP6 PUSH2 0x558 JUMP JUMPDEST PUSH2 0x5E8 PUSH1 0x40 DUP4 ADD DUP5 PUSH2 0x5A3 JUMP JUMPDEST SWAP5 SWAP4 POP POP POP POP JUMP JUMPDEST PUSH2 0x5F9 DUP2 PUSH2 0x54E JUMP JUMPDEST DUP2 EQ PUSH2 0x604 JUMPI PUSH1 0x0 DUP1 REVERT JUMPDEST POP JUMP JUMPDEST PUSH1 0x0 DUP2 CALLDATALOAD SWAP1 POP PUSH2 0x616 DUP2 PUSH2 0x5F0 JUMP JUMPDEST SWAP3 SWAP2 POP POP JUMP JUMPDEST PUSH1 0x0 PUSH1 0x20 DUP3 DUP5 SUB SLT ISZERO PUSH2 0x632 JUMPI PUSH2 0x631 PUSH2 0x429 JUMP JUMPDEST JUMPDEST PUSH1 0x0 PUSH2 0x640 DUP5 DUP3 DUP6 ADD PUSH2 0x607 JUMP JUMPDEST SWAP2 POP POP SWAP3 SWAP2 POP POP JUMP JUMPDEST PUSH2 0x652 DUP2 PUSH2 0x453 JUMP JUMPDEST DUP3 MSTORE POP POP JUMP JUMPDEST PUSH1 0x0 PUSH1 0x20 DUP3 ADD SWAP1 POP PUSH2 0x66D PUSH1 0x0 DUP4 ADD DUP5 PUSH2 0x649 JUMP JUMPDEST SWAP3 SWAP2 POP POP JUMP JUMPDEST PUSH1 0x0 DUP1 REVERT JUMPDEST PUSH1 0x0 DUP1 REVERT JUMPDEST PUSH32 0x4E487B7100000000000000000000000000000000000000000000000000000000 PUSH1 0x0 MSTORE PUSH1 0x41 PUSH1 0x4 MSTORE PUSH1 0x24 PUSH1 0x0 REVERT JUMPDEST PUSH2 0x6B5 DUP3 PUSH2 0x504 JUMP JUMPDEST DUP2 ADD DUP2 DUP2 LT PUSH8 0xFFFFFFFFFFFFFFFF DUP3 GT OR ISZERO PUSH2 0x6D4 JUMPI PUSH2 0x6D3 PUSH2 0x67D JUMP JUMPDEST JUMPDEST DUP1 PUSH1 0x40 MSTORE POP POP POP JUMP JUMPDEST PUSH1 0x0 PUSH2 0x6E7 PUSH2 0x41F JUMP JUMPDEST SWAP1 POP PUSH2 0x6F3 DUP3 DUP3 PUSH2 0x6AC JUMP JUMPDEST SWAP2 SWAP1 POP JUMP JUMPDEST PUSH1 0x0 PUSH8 0xFFFFFFFFFFFFFFFF DUP3 GT ISZERO PUSH2 0x713 JUMPI PUSH2 0x712 PUSH2 0x67D JUMP JUMPDEST JUMPDEST PUSH2 0x71C DUP3 PUSH2 0x504 JUMP JUMPDEST SWAP1 POP PUSH1 0x20 DUP2 ADD SWAP1 POP SWAP2 SWAP1 POP JUMP JUMPDEST DUP3 DUP2 DUP4 CALLDATACOPY PUSH1 0x0 DUP4 DUP4 ADD MSTORE POP POP POP JUMP JUMPDEST PUSH1 0x0 PUSH2 0x74B PUSH2 0x746 DUP5 PUSH2 0x6F8 JUMP JUMPDEST PUSH2 0x6DD JUMP JUMPDEST SWAP1 POP DUP3 DUP2 MSTORE PUSH1 0x20 DUP2 ADD DUP5 DUP5 DUP5 ADD GT ISZERO PUSH2 0x767 JUMPI PUSH2 0x766 PUSH2 0x678 JUMP JUMPDEST JUMPDEST PUSH2 0x772 DUP5 DUP3 DUP6 PUSH2 0x729 JUMP JUMPDEST POP SWAP4 SWAP3 POP POP POP JUMP JUMPDEST PUSH1 0x0 DUP3 PUSH1 0x1F DUP4 ADD SLT PUSH2 0x78F JUMPI PUSH2 0x78E PUSH2 0x673 JUMP JUMPDEST JUMPDEST DUP2 CALLDATALOAD PUSH2 0x79F DUP5 DUP3 PUSH1 0x20 DUP7 ADD PUSH2 0x738 JUMP JUMPDEST SWAP2 POP POP SWAP3 SWAP2 POP POP JUMP JUMPDEST PUSH1 0x0 DUP1 PUSH1 0x40 DUP4 DUP6 SUB SLT ISZERO PUSH2 0x7BF JUMPI PUSH2 0x7BE PUSH2 0x429 JUMP JUMPDEST JUMPDEST PUSH1 0x0 DUP4 ADD CALLDATALOAD PUSH8 0xFFFFFFFFFFFFFFFF DUP2 GT ISZERO PUSH2 0x7DD JUMPI PUSH2 0x7DC PUSH2 0x42E JUMP JUMPDEST JUMPDEST PUSH2 0x7E9 DUP6 DUP3 DUP7 ADD PUSH2 0x77A JUMP JUMPDEST SWAP3 POP POP PUSH1 0x20 PUSH2 0x7FA DUP6 DUP3 DUP7 ADD PUSH2 0x607 JUMP JUMPDEST SWAP2 POP POP SWAP3 POP SWAP3 SWAP1 POP JUMP JUMPDEST PUSH32 0x4E487B7100000000000000000000000000000000000000000000000000000000 PUSH1 0x0 MSTORE PUSH1 0x22 PUSH1 0x4 MSTORE PUSH1 0x24 PUSH1 0x0 REVERT JUMPDEST PUSH1 0x0 PUSH1 0x2 DUP3 DIV SWAP1 POP PUSH1 0x1 DUP3 AND DUP1 PUSH2 0x84B JUMPI PUSH1 0x7F DUP3 AND SWAP2 POP JUMPDEST PUSH1 0x20 DUP3 LT DUP2 SUB PUSH2 0x85E JUMPI PUSH2 0x85D PUSH2 0x804 JUMP JUMPDEST JUMPDEST POP SWAP2 SWAP1 POP JUMP JUMPDEST PUSH1 0x0 DUP2 SWAP1 POP DUP2 PUSH1 0x0 MSTORE PUSH1 0x20 PUSH1 0x0 KECCAK256 SWAP1 POP SWAP2 SWAP1 POP JUMP JUMPDEST PUSH1 0x0 PUSH1 0x20 PUSH1 0x1F DUP4 ADD DIV SWAP1 POP SWAP2 SWAP1 POP JUMP JUMPDEST PUSH1 0x0 DUP3 DUP3 SHL SWAP1 POP SWAP3 SWAP2 POP POP JUMP JUMPDEST PUSH1 0x0 PUSH1 0x8 DUP4 MUL PUSH2 0x8C6 PUSH32 0xFFFFFFFFFFFFFFFFFFFFFFFFFFFFFFFFFFFFFFFFFFFFFFFFFFFFFFFFFFFFFFFF DUP3 PUSH2 0x889 JUMP JUMPDEST PUSH2 0x8D0 DUP7 DUP4 PUSH2 0x889 JUMP JUMPDEST SWAP6 POP DUP1 NOT DUP5 AND SWAP4 POP DUP1 DUP7 AND DUP5 OR SWAP3 POP POP POP SWAP4 SWAP3 POP POP POP JUMP JUMPDEST PUSH1 0x0 DUP2 SWAP1 POP SWAP2 SWAP1 POP JUMP JUMPDEST PUSH1 0x0 PUSH2 0x90D PUSH2 0x908 PUSH2 0x903 DUP5 PUSH2 0x54E JUMP JUMPDEST PUSH2 0x8E8 JUMP JUMPDEST PUSH2 0x54E JUMP JUMPDEST SWAP1 POP SWAP2 SWAP1 POP JUMP JUMPDEST PUSH1 0x0 DUP2 SWAP1 POP SWAP2 SWAP1 POP JUMP JUMPDEST PUSH2 0x927 DUP4 PUSH2 0x8F2 JUMP JUMPDEST PUSH2 0x93B PUSH2 0x933 DUP3 PUSH2 0x914 JUMP JUMPDEST DUP5 DUP5 SLOAD PUSH2 0x896 JUMP JUMPDEST DUP3 SSTORE POP POP POP POP JUMP JUMPDEST PUSH1 0x0 SWAP1 JUMP JUMPDEST PUSH2 0x950 PUSH2 0x943 JUMP JUMPDEST PUSH2 0x95B DUP2 DUP5 DUP5 PUSH2 0x91E JUMP JUMPDEST POP POP POP JUMP JUMPDEST JUMPDEST DUP2 DUP2 LT ISZERO PUSH2 0x97F JUMPI PUSH2 0x974 PUSH1 0x0 DUP3 PUSH2 0x948 JUMP JUMPDEST PUSH1 0x1 DUP2 ADD SWAP1 POP PUSH2 0x961 JUMP JUMPDEST POP POP JUMP JUMPDEST PUSH1 0x1F DUP3 GT ISZERO PUSH2 0x9C4 JUMPI PUSH2 0x995 DUP2 PUSH2 0x864 JUMP JUMPDEST PUSH2 0x99E DUP5 PUSH2 0x879 JUMP JUMPDEST DUP2 ADD PUSH1 0x20 DUP6 LT ISZERO PUSH2 0x9AD JUMPI DUP2 SWAP1 POP JUMPDEST PUSH2 0x9C1 PUSH2 0x9B9 DUP6 PUSH2 0x879 JUMP JUMPDEST DUP4 ADD DUP3 PUSH2 0x960 JUMP JUMPDEST POP POP JUMPDEST POP POP POP JUMP JUMPDEST PUSH1 0x0 DUP3 DUP3 SHR SWAP1 POP SWAP3 SWAP2 POP POP JUMP JUMPDEST PUSH1 0x0 PUSH2 0x9E7 PUSH1 0x0 NOT DUP5 PUSH1 0x8 MUL PUSH2 0x9C9 JUMP JUMPDEST NOT DUP1 DUP4 AND SWAP2 POP POP SWAP3 SWAP2 POP POP JUMP JUMPDEST PUSH1 0x0 PUSH2 0xA00 DUP4 DUP4 PUSH2 0x9D6 JUMP JUMPDEST SWAP2 POP DUP3 PUSH1 0x2 MUL DUP3 OR SWAP1 POP SWAP3 SWAP2 POP POP JUMP JUMPDEST PUSH2 0xA19 DUP3 PUSH2 0x4BE JUMP JUMPDEST PUSH8 0xFFFFFFFFFFFFFFFF DUP2 GT ISZERO PUSH2 0xA32 JUMPI PUSH2 0xA31 PUSH2 0x67D JUMP JUMPDEST JUMPDEST PUSH2 0xA3C DUP3 SLOAD PUSH2 0x833 JUMP JUMPDEST PUSH2 0xA47 DUP3 DUP3 DUP6 PUSH2 0x983 JUMP JUMPDEST PUSH1 0x0 PUSH1 0x20 SWAP1 POP PUSH1 0x1F DUP4 GT PUSH1 0x1 DUP2 EQ PUSH2 0xA7A JUMPI PUSH1 0x0 DUP5 ISZERO PUSH2 0xA68 JUMPI DUP3 DUP8 ADD MLOAD SWAP1 POP JUMPDEST PUSH2 0xA72 DUP6 DUP3 PUSH2 0x9F4 JUMP JUMPDEST DUP7 SSTORE POP PUSH2 0xADA JUMP JUMPDEST PUSH1 0x1F NOT DUP5 AND PUSH2 0xA88 DUP7 PUSH2 0x864 JUMP JUMPDEST PUSH1 0x0 JUMPDEST DUP3 DUP2 LT ISZERO PUSH2 0xAB0 JUMPI DUP5 DUP10 ADD MLOAD DUP3 SSTORE PUSH1 0x1 DUP3 ADD SWAP2 POP PUSH1 0x20 DUP6 ADD SWAP5 POP PUSH1 0x20 DUP2 ADD SWAP1 POP PUSH2 0xA8B JUMP JUMPDEST DUP7 DUP4 LT ISZERO PUSH2 0xACD JUMPI DUP5 DUP10 ADD MLOAD PUSH2 0xAC9 PUSH1 0x1F DUP10 AND DUP3 PUSH2 0x9D6 JUMP JUMPDEST DUP4 SSTORE POP JUMPDEST PUSH1 0x1 PUSH1 0x2 DUP9 MUL ADD DUP9 SSTORE POP POP POP JUMPDEST POP POP POP POP POP POP JUMP INVALID LOG2 PUSH5 0x6970667358 0x22 SLT KECCAK256 DUP15 TIMESTAMP PUSH9 0x68DDC08DD587442AF8 0xC1 DUP10 0xB5 BASEFEE COINBASE CHAINID 0xDB 0xC4 SELFBALANCE 0x4A SWAP3 0x27 PUSH4 0x2BC99848 PUSH31 0x394764736F6C63430008130033000000000000000000000000000000000000 "
				},
				"gasEstimates": {
					"creation": {
						"codeDepositCost": "568000",
						"executionCost": "600",
						"totalCost": "568600"
					},
					"external": {
						"get_user(address)": "infinite",
						"register(string,uint256)": "infinite",
						"user_list(uint256)": "4978",
						"users(address)": "infinite"
					}
				},
				"methodIdentifiers": {
					"get_user(address)": "71ad7221",
					"register(string,uint256)": "ea87152b",
					"user_list(uint256)": "b0ce739d",
					"users(address)": "a87430ba"
				}
			},
			"storageLayout": {
				"storage": [
					{
						"astId": 13,
						"contract": "user_profile.sol:User_Profile",
						"label": "users",
						"offset": 0,
						"slot": "0",
						"type": "t_mapping(t_address,t_struct(User)8_storage)"
					},
					{
						"astId": 16,
						"contract": "user_profile.sol:User_Profile",
						"label": "user_list",
						"offset": 0,
						"slot": "1",
						"type": "t_array(t_address)dyn_storage"
					}
				],
				"types": {
					"t_address": {
						"encoding": "inplace",
						"label": "address",
						"numberOfBytes": "20"
					},
					"t_array(t_address)dyn_storage": {
						"base": "t_address",
						"encoding": "dynamic_array",
						"label": "address[]",
						"numberOfBytes": "32"
					},
					"t_bool": {
						"encoding": "inplace",
						"label": "bool",
						"numberOfBytes": "1"
					},
					"t_mapping(t_address,t_struct(User)8_storage)": {
						"encoding": "mapping",
						"key": "t_address",
						"label": "mapping(address => struct User_Profile.User)",
						"numberOfBytes": "32",
						"value": "t_struct(User)8_storage"
					},
					"t_string_storage": {
						"encoding": "bytes",
						"label": "string",
						"numberOfBytes": "32"
					},
					"t_struct(User)8_storage": {
						"encoding": "inplace",
						"label": "struct User_Profile.User",
						"members": [
							{
								"astId": 3,
								"contract": "user_profile.sol:User_Profile",
								"label": "name",
								"offset": 0,
								"slot": "0",
								"type": "t_string_storage"
							},
							{
								"astId": 5,
								"contract": "user_profile.sol:User_Profile",
								"label": "age",
								"offset": 0,
								"slot": "1",
								"type": "t_uint256"
							},
							{
								"astId": 7,
								"contract": "user_profile.sol:User_Profile",
								"label": "is_registered",
								"offset": 0,
								"slot": "2",
								"type": "t_bool"
							}
						],
						"numberOfBytes": "96"
					},
					"t_uint256": {
						"encoding": "inplace",
						"label": "uint256",
						"numberOfBytes": "32"
					}
				}
			},
			"userdoc": {
				"kind": "user",
				"methods": {},
				"version": 1
			}
		}
	}
}